{
  "_format": "hh-sol-artifact-1",
  "contractName": "PhoneRegistry",
  "sourceName": "contracts/PhoneRegistry.sol",
  "abi": [
    {
      "inputs": [],
      "stateMutability": "nonpayable",
      "type": "constructor"
    },
    {
      "inputs": [],
      "name": "EnforcedPause",
      "type": "error"
    },
    {
      "inputs": [],
      "name": "ExpectedPause",
      "type": "error"
    },
    {
      "inputs": [
        {
          "internalType": "address",
          "name": "owner",
          "type": "address"
        }
      ],
      "name": "OwnableInvalidOwner",
      "type": "error"
    },
    {
      "inputs": [
        {
          "internalType": "address",
          "name": "account",
          "type": "address"
        }
      ],
      "name": "OwnableUnauthorizedAccount",
      "type": "error"
    },
    {
      "anonymous": false,
      "inputs": [
        {
          "indexed": true,
          "internalType": "address",
          "name": "previousOwner",
          "type": "address"
        },
        {
          "indexed": true,
          "internalType": "address",
          "name": "newOwner",
          "type": "address"
        }
      ],
      "name": "OwnershipTransferred",
      "type": "event"
    },
    {
      "anonymous": false,
      "inputs": [
        {
          "indexed": false,
          "internalType": "address",
          "name": "account",
          "type": "address"
        }
      ],
      "name": "Paused",
      "type": "event"
    },
    {
      "anonymous": false,
      "inputs": [
        {
          "indexed": true,
          "internalType": "string",
          "name": "phoneNumber",
          "type": "string"
        },
        {
          "indexed": true,
          "internalType": "address",
          "name": "walletAddress",
          "type": "address"
        }
      ],
      "name": "PhoneDeactivated",
      "type": "event"
    },
    {
      "anonymous": false,
      "inputs": [
        {
          "indexed": true,
          "internalType": "string",
          "name": "phoneNumber",
          "type": "string"
        },
        {
          "indexed": true,
          "internalType": "address",
          "name": "walletAddress",
          "type": "address"
        },
        {
          "indexed": false,
          "internalType": "string",
          "name": "name",
          "type": "string"
        }
      ],
      "name": "PhoneRegistered",
      "type": "event"
    },
    {
      "anonymous": false,
      "inputs": [
        {
          "indexed": true,
          "internalType": "string",
          "name": "phoneNumber",
          "type": "string"
        },
        {
          "indexed": true,
          "internalType": "address",
          "name": "newAddress",
          "type": "address"
        },
        {
          "indexed": false,
          "internalType": "string",
          "name": "name",
          "type": "string"
        }
      ],
      "name": "PhoneUpdated",
      "type": "event"
    },
    {
      "anonymous": false,
      "inputs": [
        {
          "indexed": true,
          "internalType": "string",
          "name": "phoneNumber",
          "type": "string"
        },
        {
          "indexed": true,
          "internalType": "address",
          "name": "walletAddress",
          "type": "address"
        }
      ],
      "name": "PhoneVerified",
      "type": "event"
    },
    {
      "anonymous": false,
      "inputs": [
        {
          "indexed": false,
          "internalType": "address",
          "name": "account",
          "type": "address"
        }
      ],
      "name": "Unpaused",
      "type": "event"
    },
    {
      "anonymous": false,
      "inputs": [
        {
          "indexed": true,
          "internalType": "string",
          "name": "phoneNumber",
          "type": "string"
        },
        {
          "indexed": false,
          "internalType": "string",
          "name": "reason",
          "type": "string"
        }
      ],
      "name": "VerificationFailed",
      "type": "event"
    },
    {
      "anonymous": false,
      "inputs": [
        {
          "indexed": true,
          "internalType": "string",
          "name": "phoneNumber",
          "type": "string"
        },
        {
          "indexed": true,
          "internalType": "address",
          "name": "requester",
          "type": "address"
        },
        {
          "indexed": false,
          "internalType": "uint256",
          "name": "timestamp",
          "type": "uint256"
        }
      ],
      "name": "VerificationRequested",
      "type": "event"
    },
    {
      "inputs": [],
      "name": "MAX_VERIFICATION_ATTEMPTS",
      "outputs": [
        {
          "internalType": "uint256",
          "name": "",
          "type": "uint256"
        }
      ],
      "stateMutability": "view",
      "type": "function"
    },
    {
      "inputs": [],
      "name": "VERIFICATION_EXPIRY",
      "outputs": [
        {
          "internalType": "uint256",
          "name": "",
          "type": "uint256"
        }
      ],
      "stateMutability": "view",
      "type": "function"
    },
    {
      "inputs": [
        {
          "internalType": "address",
          "name": "",
          "type": "address"
        }
      ],
      "name": "addressToPhone",
      "outputs": [
        {
          "internalType": "string",
          "name": "",
          "type": "string"
        }
      ],
      "stateMutability": "view",
      "type": "function"
    },
    {
      "inputs": [
        {
          "internalType": "string",
          "name": "phoneNumber",
          "type": "string"
        }
      ],
      "name": "deactivatePhone",
      "outputs": [],
      "stateMutability": "nonpayable",
      "type": "function"
    },
    {
      "inputs": [
        {
          "internalType": "string",
          "name": "phoneNumber",
          "type": "string"
        }
      ],
      "name": "emergencyDeactivatePhone",
      "outputs": [],
      "stateMutability": "nonpayable",
      "type": "function"
    },
    {
      "inputs": [
        {
          "internalType": "string",
          "name": "phoneNumber",
          "type": "string"
        }
      ],
      "name": "getAddressByPhone",
      "outputs": [
        {
          "internalType": "address",
          "name": "",
          "type": "address"
        }
      ],
      "stateMutability": "view",
      "type": "function"
    },
    {
      "inputs": [],
      "name": "getAllRegisteredPhones",
      "outputs": [
        {
          "internalType": "string[]",
          "name": "",
          "type": "string[]"
        }
      ],
      "stateMutability": "view",
      "type": "function"
    },
    {
      "inputs": [
        {
          "internalType": "address",
          "name": "walletAddress",
          "type": "address"
        }
      ],
      "name": "getPhoneByAddress",
      "outputs": [
        {
          "internalType": "string",
          "name": "",
          "type": "string"
        }
      ],
      "stateMutability": "view",
      "type": "function"
    },
    {
      "inputs": [
        {
          "internalType": "string",
          "name": "phoneNumber",
          "type": "string"
        }
      ],
      "name": "getPhoneRecord",
      "outputs": [
        {
          "components": [
            {
              "internalType": "string",
              "name": "phoneNumber",
              "type": "string"
            },
            {
              "internalType": "address",
              "name": "walletAddress",
              "type": "address"
            },
            {
              "internalType": "string",
              "name": "name",
              "type": "string"
            },
            {
              "internalType": "bool",
              "name": "isActive",
              "type": "bool"
            },
            {
              "internalType": "uint256",
              "name": "registrationDate",
              "type": "uint256"
            },
            {
              "internalType": "uint256",
              "name": "lastUpdate",
              "type": "uint256"
            },
            {
              "internalType": "bool",
              "name": "isVerified",
              "type": "bool"
            }
          ],
          "internalType": "struct PhoneRegistry.PhoneRecord",
          "name": "",
          "type": "tuple"
        }
      ],
      "stateMutability": "view",
      "type": "function"
    },
    {
      "inputs": [
        {
          "internalType": "string",
          "name": "phoneNumber",
          "type": "string"
        }
      ],
      "name": "getVerificationRequest",
      "outputs": [
        {
          "components": [
            {
              "internalType": "string",
              "name": "phoneNumber",
              "type": "string"
            },
            {
              "internalType": "address",
              "name": "requester",
              "type": "address"
            },
            {
              "internalType": "uint256",
              "name": "timestamp",
              "type": "uint256"
            },
            {
              "internalType": "bool",
              "name": "isVerified",
              "type": "bool"
            },
            {
              "internalType": "string",
              "name": "verificationCode",
              "type": "string"
            }
          ],
          "internalType": "struct PhoneRegistry.VerificationRequest",
          "name": "",
          "type": "tuple"
        }
      ],
      "stateMutability": "view",
      "type": "function"
    },
    {
      "inputs": [
        {
          "internalType": "string",
          "name": "phoneNumber",
          "type": "string"
        }
      ],
      "name": "isPhoneRegistered",
      "outputs": [
        {
          "internalType": "bool",
          "name": "",
          "type": "bool"
        }
      ],
      "stateMutability": "view",
      "type": "function"
    },
    {
      "inputs": [
        {
          "internalType": "string",
          "name": "phoneNumber",
          "type": "string"
        }
      ],
      "name": "isPhoneVerified",
      "outputs": [
        {
          "internalType": "bool",
          "name": "",
          "type": "bool"
        }
      ],
      "stateMutability": "view",
      "type": "function"
    },
    {
      "inputs": [],
      "name": "owner",
      "outputs": [
        {
          "internalType": "address",
          "name": "",
          "type": "address"
        }
      ],
      "stateMutability": "view",
      "type": "function"
    },
    {
      "inputs": [],
      "name": "pause",
      "outputs": [],
      "stateMutability": "nonpayable",
      "type": "function"
    },
    {
      "inputs": [],
      "name": "paused",
      "outputs": [
        {
          "internalType": "bool",
          "name": "",
          "type": "bool"
        }
      ],
      "stateMutability": "view",
      "type": "function"
    },
    {
      "inputs": [
        {
          "internalType": "string",
          "name": "",
          "type": "string"
        }
      ],
      "name": "phoneRecords",
      "outputs": [
        {
          "internalType": "string",
          "name": "phoneNumber",
          "type": "string"
        },
        {
          "internalType": "address",
          "name": "walletAddress",
          "type": "address"
        },
        {
          "internalType": "string",
          "name": "name",
          "type": "string"
        },
        {
          "internalType": "bool",
          "name": "isActive",
          "type": "bool"
        },
        {
          "internalType": "uint256",
          "name": "registrationDate",
          "type": "uint256"
        },
        {
          "internalType": "uint256",
          "name": "lastUpdate",
          "type": "uint256"
        },
        {
          "internalType": "bool",
          "name": "isVerified",
          "type": "bool"
        }
      ],
      "stateMutability": "view",
      "type": "function"
    },
    {
      "inputs": [
        {
          "internalType": "string",
          "name": "phoneNumber",
          "type": "string"
        }
      ],
      "name": "reactivatePhone",
      "outputs": [],
      "stateMutability": "nonpayable",
      "type": "function"
    },
    {
      "inputs": [
        {
          "internalType": "string",
          "name": "phoneNumber",
          "type": "string"
        },
        {
          "internalType": "string",
          "name": "name",
          "type": "string"
        }
      ],
      "name": "registerPhone",
      "outputs": [],
      "stateMutability": "nonpayable",
      "type": "function"
    },
    {
      "inputs": [
        {
          "internalType": "uint256",
          "name": "",
          "type": "uint256"
        }
      ],
      "name": "registeredPhones",
      "outputs": [
        {
          "internalType": "string",
          "name": "",
          "type": "string"
        }
      ],
      "stateMutability": "view",
      "type": "function"
    },
    {
      "inputs": [],
      "name": "renounceOwnership",
      "outputs": [],
      "stateMutability": "nonpayable",
      "type": "function"
    },
    {
      "inputs": [
        {
          "internalType": "string",
          "name": "phoneNumber",
          "type": "string"
        }
      ],
      "name": "requestVerification",
      "outputs": [],
      "stateMutability": "nonpayable",
      "type": "function"
    },
    {
      "inputs": [
        {
          "internalType": "string",
          "name": "searchTerm",
          "type": "string"
        }
      ],
      "name": "searchPhonesByName",
      "outputs": [
        {
          "internalType": "string[]",
          "name": "",
          "type": "string[]"
        }
      ],
      "stateMutability": "view",
      "type": "function"
    },
    {
      "inputs": [
        {
          "internalType": "address",
          "name": "newOwner",
          "type": "address"
        }
      ],
      "name": "transferOwnership",
      "outputs": [],
      "stateMutability": "nonpayable",
      "type": "function"
    },
    {
      "inputs": [],
      "name": "unpause",
      "outputs": [],
      "stateMutability": "nonpayable",
      "type": "function"
    },
    {
      "inputs": [
        {
          "internalType": "string",
          "name": "phoneNumber",
          "type": "string"
        },
        {
          "internalType": "string",
          "name": "newName",
          "type": "string"
        }
      ],
      "name": "updatePhone",
      "outputs": [],
      "stateMutability": "nonpayable",
      "type": "function"
    },
    {
      "inputs": [
        {
          "internalType": "string",
          "name": "",
          "type": "string"
        }
      ],
      "name": "verificationAttempts",
      "outputs": [
        {
          "internalType": "uint256",
          "name": "",
          "type": "uint256"
        }
      ],
      "stateMutability": "view",
      "type": "function"
    },
    {
      "inputs": [],
      "name": "verificationCounter",
      "outputs": [
        {
          "internalType": "uint256",
          "name": "",
          "type": "uint256"
        }
      ],
      "stateMutability": "view",
      "type": "function"
    },
    {
      "inputs": [
        {
          "internalType": "string",
          "name": "",
          "type": "string"
        }
      ],
      "name": "verificationRequests",
      "outputs": [
        {
          "internalType": "string",
          "name": "phoneNumber",
          "type": "string"
        },
        {
          "internalType": "address",
          "name": "requester",
          "type": "address"
        },
        {
          "internalType": "uint256",
          "name": "timestamp",
          "type": "uint256"
        },
        {
          "internalType": "bool",
          "name": "isVerified",
          "type": "bool"
        },
        {
          "internalType": "string",
          "name": "verificationCode",
          "type": "string"
        }
      ],
      "stateMutability": "view",
      "type": "function"
    },
    {
      "inputs": [
        {
          "internalType": "string",
          "name": "phoneNumber",
          "type": "string"
        },
        {
          "internalType": "string",
          "name": "verificationCode",
          "type": "string"
        }
      ],
      "name": "verifyPhone",
      "outputs": [],
      "stateMutability": "nonpayable",
      "type": "function"
    }
  ],
  "bytecode": "0x608060405234801561001057600080fd5b50338061003757604051631e4fbdf760e01b81526000600482015260240160405180910390fd5b61004081610046565b50610096565b600080546001600160a01b038381166001600160a01b0319831681178455604051919092169283917f8be0079c531659141344cd1fd0a4f28419497f9722a3daafe3b4186f6b6457e09190a35050565b612a2180620000a66000396000f3fe608060405234801561001057600080fd5b50600436106101cf5760003560e01c80638456cb5911610104578063c62b6108116100a2578063d3be903211610071578063d3be90321461041a578063e4a445521461043a578063f0d7b3e014610442578063f2fde38b1461044b57600080fd5b8063c62b6108146103d9578063d3245db7146103ec578063d3278b23146103f4578063d36c57911461040757600080fd5b80638fb5867f116100de5780638fb5867f1461037c57806397b885471461038f578063ab1cdd4e146103b3578063b958a5e1146103c657600080fd5b80638456cb591461033d5780638da5cb5b146103455780638e6171d01461035657600080fd5b806336effbe3116101715780635c975abb1161014b5780635c975abb146102f05780636cbff42a14610302578063715018a6146103155780637c76527a1461031d57600080fd5b806336effbe3146102b55780633f4ba83a146102c85780634392d425146102d057600080fd5b806316cd94fc116101ad57806316cd94fc1461024b5780631b14e42a146102545780632ae1700c14610267578063361dec511461029257600080fd5b806301d45be9146101d4578063096e3aa2146101e957806312d49af414610212575b600080fd5b6101e76101e236600461230b565b61045e565b005b6101fc6101f7366004612348565b6105f0565b60405161020991906123c8565b60405180910390f35b61023d61022036600461230b565b805160208183018101805160068252928201919093012091525481565b604051908152602001610209565b61023d60055481565b6101e76102623660046123db565b61068a565b61027a61027536600461230b565b61090e565b6040516001600160a01b039091168152602001610209565b6102a56102a036600461230b565b610984565b6040519015158152602001610209565b6101e76102c33660046123db565b6109e0565b6101e7610cde565b6102e36102de36600461230b565b610cf0565b604051610209919061243f565b600054600160a01b900460ff166102a5565b6101e761031036600461230b565b610edc565b6101e7611145565b61033061032b36600461230b565b611157565b60405161020991906124c8565b6101e7611440565b6000546001600160a01b031661027a565b61036961036436600461230b565b611450565b604051610209979695949392919061252a565b6101e761038a3660046123db565b6115bb565b6103a261039d36600461230b565b61172d565b604051610209959493929190612587565b6102a56103c136600461230b565b611889565b6101fc6103d4366004612348565b6118b7565b6101fc6103e73660046125d6565b611963565b61023d600381565b6101e761040236600461230b565b61198e565b6101e761041536600461230b565b611ac3565b61042d61042836600461230b565b611b91565b60405161020991906125ef565b610330611d52565b61023d61025881565b6101e7610459366004612348565b611e2b565b80336001600160a01b03166001826040516104799190612659565b908152604051908190036020019020600101546001600160a01b0316146104bb5760405162461bcd60e51b81526004016104b290612675565b60405180910390fd5b6001826040516104cb9190612659565b9081526040519081900360200190206003015460ff16156105255760405162461bcd60e51b815260206004820152601460248201527350686f6e6520616c72656164792061637469766560601b60448201526064016104b2565b600180836040516105369190612659565b908152604051908190036020018120600301805492151560ff1990931692909217909155429060019061056a908590612659565b90815260405190819003602001812060050191909155339061058d908490612659565b60405180910390207f9cf23c5fbc876353f93523b51cd2f92b4c63ec713921072a25998df929f9d8e36001856040516105c69190612659565b90815260200160405180910390206002016040516105e491906126d8565b60405180910390a35050565b600260205260009081526040902080546106099061269e565b80601f01602080910402602001604051908101604052809291908181526020018280546106359061269e565b80156106825780601f1061065757610100808354040283529160200191610682565b820191906000526020600020905b81548152906001019060200180831161066557829003601f168201915b505050505081565b81336001600160a01b03166001826040516106a59190612659565b908152604051908190036020019020600101546001600160a01b0316146106de5760405162461bcd60e51b81526004016104b290612675565b60006003846040516106f09190612659565b90815260405190819003602001902060018101549091506001600160a01b031633146107525760405162461bcd60e51b815260206004820152601160248201527024b73b30b634b2103932b8bab2b9ba32b960791b60448201526064016104b2565b600381015460ff161561079a5760405162461bcd60e51b815260206004820152601060248201526f105b1c9958591e481d995c9a599a595960821b60448201526064016104b2565b61025881600201546107ac9190612779565b4211156107f25760405162461bcd60e51b815260206004820152601460248201527315995c9a599a58d85d1a5bdb88195e1c1a5c995960621b60448201526064016104b2565b8251602084012060405161080a90600484019061278c565b60405180910390201461085f5760405162461bcd60e51b815260206004820152601960248201527f496e76616c696420766572696669636174696f6e20636f64650000000000000060448201526064016104b2565b60038101805460ff191660019081179091556040518190610881908790612659565b908152604051908190036020018120600601805492151560ff199093169290921790915542906001906108b5908790612659565b9081526040519081900360200181206005019190915533906108d8908690612659565b604051908190038120907fd5982f6fbbc09a33ad99eb3d0522d0d201a717ac4f59f6860aa4d688e99b614c90600090a350505050565b60006001826040516109209190612659565b9081526040519081900360200190206003015460ff166109525760405162461bcd60e51b81526004016104b290612802565b6001826040516109629190612659565b908152604051908190036020019020600101546001600160a01b031692915050565b60006001826040516109969190612659565b9081526040519081900360200190206003015460ff1680156109da57506001826040516109c39190612659565b9081526040519081900360200190206006015460ff165b92915050565b6109e8611e69565b6000825111610a315760405162461bcd60e51b8152602060048201526015602482015274141a1bdb99481b9d5b58995c881c995c5d5a5c9959605a1b60448201526064016104b2565b6000815111610a725760405162461bcd60e51b815260206004820152600d60248201526c13985b59481c995c5d5a5c9959609a1b60448201526064016104b2565b60006001600160a01b0316600183604051610a8d9190612659565b908152604051908190036020019020600101546001600160a01b031614610af65760405162461bcd60e51b815260206004820152601860248201527f50686f6e6520616c72656164792072656769737465726564000000000000000060448201526064016104b2565b3360009081526002602052604090208054610b109061269e565b159050610b5f5760405162461bcd60e51b815260206004820152601960248201527f4164647265737320616c7265616479206861732070686f6e650000000000000060448201526064016104b2565b6040805160e081018252838152336020820152808201839052600160608201819052426080830181905260a0830152600060c08301529151909190610ba5908590612659565b90815260405190819003602001902081518190610bc2908261287b565b5060208201516001820180546001600160a01b0319166001600160a01b0390921691909117905560408201516002820190610bfd908261287b565b50606082015160038201805491151560ff199283161790556080830151600483015560a0830151600583015560c0909201516006909101805491151591909216179055336000908152600260205260409020610c59838261287b565b50600480546001810182556000919091527f8a35acfbc15ff81a39ae7d344fd709f28e8600b4aa8c65c6b64bfe7fe36bd19b01610c96838261287b565b506040513390610ca7908490612659565b60405180910390207f408a8ad83862180545e1004e1219a4854d723dbdf66fbff369e3d74b1cdcffd4836040516105e491906123c8565b610ce6611e94565b610cee611ec1565b565b610d3d6040518060e001604052806060815260200160006001600160a01b031681526020016060815260200160001515815260200160008152602001600081526020016000151581525090565b600182604051610d4d9190612659565b90815260200160405180910390206040518060e0016040529081600082018054610d769061269e565b80601f0160208091040260200160405190810160405280929190818152602001828054610da29061269e565b8015610def5780601f10610dc457610100808354040283529160200191610def565b820191906000526020600020905b815481529060010190602001808311610dd257829003601f168201915b505050918352505060018201546001600160a01b03166020820152600282018054604090920191610e1f9061269e565b80601f0160208091040260200160405190810160405280929190818152602001828054610e4b9061269e565b8015610e985780601f10610e6d57610100808354040283529160200191610e98565b820191906000526020600020905b815481529060010190602001808311610e7b57829003601f168201915b5050509183525050600382015460ff908116151560208301526004830154604083015260058301546060830152600690920154909116151560809091015292915050565b80336001600160a01b0316600182604051610ef79190612659565b908152604051908190036020019020600101546001600160a01b031614610f305760405162461bcd60e51b81526004016104b290612675565b81600181604051610f419190612659565b9081526040519081900360200190206003015460ff16610f735760405162461bcd60e51b81526004016104b290612802565b6003600684604051610f859190612659565b90815260200160405180910390205410610feb5760405162461bcd60e51b815260206004820152602160248201527f4d617820766572696669636174696f6e20617474656d707473207265616368656044820152601960fa1b60648201526084016104b2565b60058054906000610ffb8361293b565b9190505550600061100a611f16565b6040805160a08101825286815233602082015242818301526000606082015260808101839052905191925090600390611044908790612659565b90815260405190819003602001902081518190611061908261287b565b5060208201516001820180546001600160a01b0319166001600160a01b0390921691909117905560408201516002820155606082015160038201805460ff1916911515919091179055608082015160048201906110be908261287b565b509050506006846040516110d29190612659565b90815260405190819003602001902080549060006110ef8361293b565b90915550506040513390611104908690612659565b604051908190038120428252907f46c16d4ddd82151c6d9fdba4494ef86488b5e0db733643a449143301295018c5906020015b60405180910390a350505050565b61114d611e94565b610cee6000611fa9565b60045460609060009067ffffffffffffffff81111561117857611178612268565b6040519080825280602002602001820160405280156111ab57816020015b60608152602001906001900390816111965790505b5090506000805b600454811015611390576000600482815481106111d1576111d1612954565b9060005260206000200180546111e69061269e565b80601f01602080910402602001604051908101604052809291908181526020018280546112129061269e565b801561125f5780601f106112345761010080835404028352916020019161125f565b820191906000526020600020905b81548152906001019060200180831161124257829003601f168201915b505050505090506001816040516112769190612659565b9081526040519081900360200190206003015460ff161561137d5760006001826040516112a39190612659565b908152602001604051809103902060020180546112bf9061269e565b80601f01602080910402602001604051908101604052809291908181526020018280546112eb9061269e565b80156113385780601f1061130d57610100808354040283529160200191611338565b820191906000526020600020905b81548152906001019060200180831161131b57829003601f168201915b505050505090506113498188611ff9565b1561137b578185858151811061136157611361612954565b602002602001018190525083806113779061293b565b9450505b505b50806113888161293b565b9150506111b2565b5060008167ffffffffffffffff8111156113ac576113ac612268565b6040519080825280602002602001820160405280156113df57816020015b60608152602001906001900390816113ca5790505b50905060005b82811015611437578381815181106113ff576113ff612954565b602002602001015182828151811061141957611419612954565b6020026020010181905250808061142f9061293b565b9150506113e5565b50949350505050565b611448611e94565b610cee6120d8565b80516020818301810180516001825292820191909301209152805481906114769061269e565b80601f01602080910402602001604051908101604052809291908181526020018280546114a29061269e565b80156114ef5780601f106114c4576101008083540402835291602001916114ef565b820191906000526020600020905b8154815290600101906020018083116114d257829003601f168201915b505050600184015460028501805494956001600160a01b039092169491935091506115199061269e565b80601f01602080910402602001604051908101604052809291908181526020018280546115459061269e565b80156115925780601f1061156757610100808354040283529160200191611592565b820191906000526020600020905b81548152906001019060200180831161157557829003601f168201915b505050600384015460048501546005860154600690960154949560ff9283169591945092501687565b81336001600160a01b03166001826040516115d69190612659565b908152604051908190036020019020600101546001600160a01b03161461160f5760405162461bcd60e51b81526004016104b290612675565b826001816040516116209190612659565b9081526040519081900360200190206003015460ff166116525760405162461bcd60e51b81526004016104b290612802565b60008351116116935760405162461bcd60e51b815260206004820152600d60248201526c13985b59481c995c5d5a5c9959609a1b60448201526064016104b2565b826001856040516116a49190612659565b908152602001604051809103902060020190816116c1919061287b565b50426001856040516116d39190612659565b9081526040519081900360200181206005019190915533906116f6908690612659565b60405180910390207f9cf23c5fbc876353f93523b51cd2f92b4c63ec713921072a25998df929f9d8e38560405161113791906123c8565b80516020818301810180516003825292820191909301209152805481906117539061269e565b80601f016020809104026020016040519081016040528092919081815260200182805461177f9061269e565b80156117cc5780601f106117a1576101008083540402835291602001916117cc565b820191906000526020600020905b8154815290600101906020018083116117af57829003601f168201915b50505060018401546002850154600386015460048701805496976001600160a01b039094169692955060ff9091169350906118069061269e565b80601f01602080910402602001604051908101604052809291908181526020018280546118329061269e565b801561187f5780601f106118545761010080835404028352916020019161187f565b820191906000526020600020905b81548152906001019060200180831161186257829003601f168201915b5050505050905085565b600060018260405161189b9190612659565b9081526040519081900360200190206003015460ff1692915050565b6001600160a01b03811660009081526002602052604090208054606091906118de9061269e565b80601f016020809104026020016040519081016040528092919081815260200182805461190a9061269e565b80156119575780601f1061192c57610100808354040283529160200191611957565b820191906000526020600020905b81548152906001019060200180831161193a57829003601f168201915b50505050509050919050565b6004818154811061197357600080fd5b9060005260206000200160009150905080546106099061269e565b80336001600160a01b03166001826040516119a99190612659565b908152604051908190036020019020600101546001600160a01b0316146119e25760405162461bcd60e51b81526004016104b290612675565b816001816040516119f39190612659565b9081526040519081900360200190206003015460ff16611a255760405162461bcd60e51b81526004016104b290612802565b6000600184604051611a379190612659565b908152604051908190036020018120600301805492151560ff19909316929092179091554290600190611a6b908690612659565b908152604051908190036020018120600501919091553390611a8e908590612659565b604051908190038120907fd9ed7090ad4d0aebbf871d1ba85024cc16fc1d582c3f8dc504da589de2de027b90600090a3505050565b611acb611e94565b6000600182604051611add9190612659565b908152604051908190036020018120600301805492151560ff19909316929092179091554290600190611b11908490612659565b908152602001604051809103902060050181905550600181604051611b369190612659565b908152604051908190036020018120600101546001600160a01b031690611b5e908390612659565b604051908190038120907fd9ed7090ad4d0aebbf871d1ba85024cc16fc1d582c3f8dc504da589de2de027b90600090a350565b611bce6040518060a001604052806060815260200160006001600160a01b0316815260200160008152602001600015158152602001606081525090565b600382604051611bde9190612659565b90815260200160405180910390206040518060a0016040529081600082018054611c079061269e565b80601f0160208091040260200160405190810160405280929190818152602001828054611c339061269e565b8015611c805780601f10611c5557610100808354040283529160200191611c80565b820191906000526020600020905b815481529060010190602001808311611c6357829003601f168201915b505050918352505060018201546001600160a01b0316602082015260028201546040820152600382015460ff1615156060820152600482018054608090920191611cc99061269e565b80601f0160208091040260200160405190810160405280929190818152602001828054611cf59061269e565b8015611d425780601f10611d1757610100808354040283529160200191611d42565b820191906000526020600020905b815481529060010190602001808311611d2557829003601f168201915b5050505050815250509050919050565b60606004805480602002602001604051908101604052809291908181526020016000905b82821015611e22578382906000526020600020018054611d959061269e565b80601f0160208091040260200160405190810160405280929190818152602001828054611dc19061269e565b8015611e0e5780601f10611de357610100808354040283529160200191611e0e565b820191906000526020600020905b815481529060010190602001808311611df157829003601f168201915b505050505081526020019060010190611d76565b50505050905090565b611e33611e94565b6001600160a01b038116611e5d57604051631e4fbdf760e01b8152600060048201526024016104b2565b611e6681611fa9565b50565b600054600160a01b900460ff1615610cee5760405163d93c066560e01b815260040160405180910390fd5b6000546001600160a01b03163314610cee5760405163118cdaa760e01b81523360048201526024016104b2565b611ec961211b565b6000805460ff60a01b191690557f5db9ee0a495bf2e6ff9c91a7834c1ba4fdd244a5e8aa4e537bd38aeae4b073aa335b6040516001600160a01b03909116815260200160405180910390a1565b60606000620f4240423344604051602001611f569392919092835260609190911b6bffffffffffffffffffffffff19166020830152603482015260540190565b6040516020818303038152906040528051906020012060001c611f799190612980565b9050611f8481612145565b604051602001611f949190612659565b60405160208183030381529060405291505090565b600080546001600160a01b038381166001600160a01b0319831681178455604051919092169283917f8be0079c531659141344cd1fd0a4f28419497f9722a3daafe3b4186f6b6457e09190a35050565b81518151600091849184911015612015576000925050506109da565b60005b815183516120269190612994565b81116120cc57600160005b83518110156120a55783818151811061204c5761204c612954565b01602001516001600160f81b031916856120668386612779565b8151811061207657612076612954565b01602001516001600160f81b0319161461209357600091506120a5565b8061209d8161293b565b915050612031565b5080156120b95760019450505050506109da565b50806120c48161293b565b915050612018565b50600095945050505050565b6120e0611e69565b6000805460ff60a01b1916600160a01b1790557f62e78cea01bee320cd4e420270b5ea74000d11b0c9f74754ebdbfc544b05a258611ef93390565b600054600160a01b900460ff16610cee57604051638dfc202b60e01b815260040160405180910390fd5b60608160000361216c5750506040805180820190915260018152600360fc1b602082015290565b8160005b811561219657806121808161293b565b915061218f9050600a836129a7565b9150612170565b60008167ffffffffffffffff8111156121b1576121b1612268565b6040519080825280601f01601f1916602001820160405280156121db576020820181803683370190505b509050815b8515611437576121f1600182612994565b90506000612200600a886129a7565b61220b90600a6129bb565b6122159088612994565b6122209060306129d2565b905060008160f81b90508084848151811061223d5761223d612954565b60200101906001600160f81b031916908160001a90535061225f600a896129a7565b975050506121e0565b634e487b7160e01b600052604160045260246000fd5b600082601f83011261228f57600080fd5b813567ffffffffffffffff808211156122aa576122aa612268565b604051601f8301601f19908116603f011681019082821181831017156122d2576122d2612268565b816040528381528660208588010111156122eb57600080fd5b836020870160208301376000602085830101528094505050505092915050565b60006020828403121561231d57600080fd5b813567ffffffffffffffff81111561233457600080fd5b6123408482850161227e565b949350505050565b60006020828403121561235a57600080fd5b81356001600160a01b038116811461237157600080fd5b9392505050565b60005b8381101561239357818101518382015260200161237b565b50506000910152565b600081518084526123b4816020860160208601612378565b601f01601f19169290920160200192915050565b602081526000612371602083018461239c565b600080604083850312156123ee57600080fd5b823567ffffffffffffffff8082111561240657600080fd5b6124128683870161227e565b9350602085013591508082111561242857600080fd5b506124358582860161227e565b9150509250929050565b602081526000825160e0602084015261245c61010084018261239c565b60208501516001600160a01b0316604085810191909152850151848203601f1901606086015290915061248f828261239c565b915050606084015115156080840152608084015160a084015260a084015160c084015260c0840151151560e08401528091505092915050565b6000602080830181845280855180835260408601915060408160051b870101925083870160005b8281101561251d57603f1988860301845261250b85835161239c565b945092850192908501906001016124ef565b5092979650505050505050565b60e08152600061253d60e083018a61239c565b6001600160a01b0389166020840152828103604084015261255e818961239c565b96151560608401525050608081019390935260a0830191909152151560c0909101529392505050565b60a08152600061259a60a083018861239c565b6001600160a01b038716602084015260408301869052841515606084015282810360808401526125ca818561239c565b98975050505050505050565b6000602082840312156125e857600080fd5b5035919050565b602081526000825160a0602084015261260b60c084018261239c565b905060018060a01b036020850151166040840152604084015160608401526060840151151560808401526080840151601f198483030160a0850152612650828261239c565b95945050505050565b6000825161266b818460208701612378565b9190910192915050565b6020808252600f908201526e2737ba10383437b7329037bbb732b960891b604082015260600190565b600181811c908216806126b257607f821691505b6020821081036126d257634e487b7160e01b600052602260045260246000fd5b50919050565b60006020808352600084546126ec8161269e565b8084870152604060018084166000811461270d576001811461272757612755565b60ff1985168984015283151560051b890183019550612755565b896000528660002060005b8581101561274d5781548b8201860152908301908801612732565b8a0184019650505b509398975050505050505050565b634e487b7160e01b600052601160045260246000fd5b808201808211156109da576109da612763565b600080835461279a8161269e565b600182811680156127b257600181146127c7576127f6565b60ff19841687528215158302870194506127f6565b8760005260208060002060005b858110156127ed5781548a8201529084019082016127d4565b50505082870194505b50929695505050505050565b60208082526010908201526f50686f6e65206e6f742061637469766560801b604082015260600190565b601f82111561287657600081815260208120601f850160051c810160208610156128535750805b601f850160051c820191505b818110156128725782815560010161285f565b5050505b505050565b815167ffffffffffffffff81111561289557612895612268565b6128a9816128a3845461269e565b8461282c565b602080601f8311600181146128de57600084156128c65750858301515b600019600386901b1c1916600185901b178555612872565b600085815260208120601f198616915b8281101561290d578886015182559484019460019091019084016128ee565b508582101561292b5787850151600019600388901b60f8161c191681555b5050505050600190811b01905550565b60006001820161294d5761294d612763565b5060010190565b634e487b7160e01b600052603260045260246000fd5b634e487b7160e01b600052601260045260246000fd5b60008261298f5761298f61296a565b500690565b818103818111156109da576109da612763565b6000826129b6576129b661296a565b500490565b80820281158282048414176109da576109da612763565b60ff81811683821601908111156109da576109da61276356fea264697066735822122047153cc26edce0843155a0f992d04f3cee35da2dcd48f438d658e24460801bf764736f6c63430008140033",
  "linkReferences": {},
  "deployedLinkReferences": {}
}