{
  "_format": "hh-sol-artifact-1",
  "contractName": "RemittanceContract",
  "sourceName": "contracts/RemittanceContract.sol",
  "abi": [
    {
      "inputs": [],
      "stateMutability": "nonpayable",
      "type": "constructor"
    },
    {
      "inputs": [],
      "name": "EnforcedPause",
      "type": "error"
    },
    {
      "inputs": [],
      "name": "ExpectedPause",
      "type": "error"
    },
    {
      "inputs": [
        {
          "internalType": "address",
          "name": "owner",
          "type": "address"
        }
      ],
      "name": "OwnableInvalidOwner",
      "type": "error"
    },
    {
      "inputs": [
        {
          "internalType": "address",
          "name": "account",
          "type": "address"
        }
      ],
      "name": "OwnableUnauthorizedAccount",
      "type": "error"
    },
    {
      "inputs": [],
      "name": "ReentrancyGuardReentrantCall",
      "type": "error"
    },
    {
      "inputs": [
        {
          "internalType": "address",
          "name": "token",
          "type": "address"
        }
      ],
      "name": "SafeERC20FailedOperation",
      "type": "error"
    },
    {
      "anonymous": false,
      "inputs": [
        {
          "indexed": false,
          "internalType": "uint256",
          "name": "oldFee",
          "type": "uint256"
        },
        {
          "indexed": false,
          "internalType": "uint256",
          "name": "newFee",
          "type": "uint256"
        }
      ],
      "name": "FeeUpdated",
      "type": "event"
    },
    {
      "anonymous": false,
      "inputs": [
        {
          "indexed": true,
          "internalType": "address",
          "name": "user",
          "type": "address"
        },
        {
          "indexed": false,
          "internalType": "bool",
          "name": "verified",
          "type": "bool"
        }
      ],
      "name": "KycVerified",
      "type": "event"
    },
    {
      "anonymous": false,
      "inputs": [
        {
          "indexed": true,
          "internalType": "address",
          "name": "previousOwner",
          "type": "address"
        },
        {
          "indexed": true,
          "internalType": "address",
          "name": "newOwner",
          "type": "address"
        }
      ],
      "name": "OwnershipTransferred",
      "type": "event"
    },
    {
      "anonymous": false,
      "inputs": [
        {
          "indexed": false,
          "internalType": "address",
          "name": "account",
          "type": "address"
        }
      ],
      "name": "Paused",
      "type": "event"
    },
    {
      "anonymous": false,
      "inputs": [
        {
          "indexed": true,
          "internalType": "uint256",
          "name": "id",
          "type": "uint256"
        },
        {
          "indexed": true,
          "internalType": "address",
          "name": "recipient",
          "type": "address"
        },
        {
          "indexed": false,
          "internalType": "uint256",
          "name": "amount",
          "type": "uint256"
        }
      ],
      "name": "RemittanceCompleted",
      "type": "event"
    },
    {
      "anonymous": false,
      "inputs": [
        {
          "indexed": true,
          "internalType": "uint256",
          "name": "id",
          "type": "uint256"
        },
        {
          "indexed": true,
          "internalType": "address",
          "name": "sender",
          "type": "address"
        },
        {
          "indexed": true,
          "internalType": "address",
          "name": "recipient",
          "type": "address"
        },
        {
          "indexed": false,
          "internalType": "address",
          "name": "token",
          "type": "address"
        },
        {
          "indexed": false,
          "internalType": "uint256",
          "name": "amount",
          "type": "uint256"
        },
        {
          "indexed": false,
          "internalType": "string",
          "name": "remittanceReference",
          "type": "string"
        }
      ],
      "name": "RemittanceCreated",
      "type": "event"
    },
    {
      "anonymous": false,
      "inputs": [
        {
          "indexed": true,
          "internalType": "uint256",
          "name": "id",
          "type": "uint256"
        },
        {
          "indexed": false,
          "internalType": "string",
          "name": "reason",
          "type": "string"
        }
      ],
      "name": "RemittanceFailed",
      "type": "event"
    },
    {
      "anonymous": false,
      "inputs": [
        {
          "indexed": true,
          "internalType": "address",
          "name": "token",
          "type": "address"
        },
        {
          "indexed": false,
          "internalType": "bool",
          "name": "supported",
          "type": "bool"
        }
      ],
      "name": "TokenAdded",
      "type": "event"
    },
    {
      "anonymous": false,
      "inputs": [
        {
          "indexed": false,
          "internalType": "address",
          "name": "account",
          "type": "address"
        }
      ],
      "name": "Unpaused",
      "type": "event"
    },
    {
      "anonymous": false,
      "inputs": [
        {
          "indexed": true,
          "internalType": "address",
          "name": "user",
          "type": "address"
        },
        {
          "indexed": false,
          "internalType": "string",
          "name": "phoneNumber",
          "type": "string"
        },
        {
          "indexed": false,
          "internalType": "string",
          "name": "name",
          "type": "string"
        }
      ],
      "name": "UserRegistered",
      "type": "event"
    },
    {
      "inputs": [],
      "name": "MAX_FEE_PERCENTAGE",
      "outputs": [
        {
          "internalType": "uint256",
          "name": "",
          "type": "uint256"
        }
      ],
      "stateMutability": "view",
      "type": "function"
    },
    {
      "inputs": [
        {
          "internalType": "address",
          "name": "",
          "type": "address"
        }
      ],
      "name": "addressToPhone",
      "outputs": [
        {
          "internalType": "string",
          "name": "",
          "type": "string"
        }
      ],
      "stateMutability": "view",
      "type": "function"
    },
    {
      "inputs": [
        {
          "internalType": "uint256",
          "name": "remittanceId",
          "type": "uint256"
        }
      ],
      "name": "cancelRemittance",
      "outputs": [],
      "stateMutability": "nonpayable",
      "type": "function"
    },
    {
      "inputs": [
        {
          "internalType": "uint256",
          "name": "remittanceId",
          "type": "uint256"
        }
      ],
      "name": "completeRemittance",
      "outputs": [],
      "stateMutability": "nonpayable",
      "type": "function"
    },
    {
      "inputs": [
        {
          "internalType": "address",
          "name": "recipient",
          "type": "address"
        },
        {
          "internalType": "string",
          "name": "recipientPhone",
          "type": "string"
        },
        {
          "internalType": "address",
          "name": "token",
          "type": "address"
        },
        {
          "internalType": "uint256",
          "name": "amount",
          "type": "uint256"
        },
        {
          "internalType": "uint256",
          "name": "exchangeRate",
          "type": "uint256"
        },
        {
          "internalType": "string",
          "name": "remittanceReference",
          "type": "string"
        }
      ],
      "name": "createRemittance",
      "outputs": [],
      "stateMutability": "nonpayable",
      "type": "function"
    },
    {
      "inputs": [],
      "name": "feePercentage",
      "outputs": [
        {
          "internalType": "uint256",
          "name": "",
          "type": "uint256"
        }
      ],
      "stateMutability": "view",
      "type": "function"
    },
    {
      "inputs": [
        {
          "internalType": "string",
          "name": "phoneNumber",
          "type": "string"
        }
      ],
      "name": "getAddressByPhone",
      "outputs": [
        {
          "internalType": "address",
          "name": "",
          "type": "address"
        }
      ],
      "stateMutability": "view",
      "type": "function"
    },
    {
      "inputs": [
        {
          "internalType": "uint256",
          "name": "remittanceId",
          "type": "uint256"
        }
      ],
      "name": "getRemittance",
      "outputs": [
        {
          "components": [
            {
              "internalType": "uint256",
              "name": "id",
              "type": "uint256"
            },
            {
              "internalType": "address",
              "name": "sender",
              "type": "address"
            },
            {
              "internalType": "address",
              "name": "recipient",
              "type": "address"
            },
            {
              "internalType": "string",
              "name": "senderPhone",
              "type": "string"
            },
            {
              "internalType": "string",
              "name": "recipientPhone",
              "type": "string"
            },
            {
              "internalType": "address",
              "name": "token",
              "type": "address"
            },
            {
              "internalType": "uint256",
              "name": "amount",
              "type": "uint256"
            },
            {
              "internalType": "uint256",
              "name": "fee",
              "type": "uint256"
            },
            {
              "internalType": "uint256",
              "name": "exchangeRate",
              "type": "uint256"
            },
            {
              "internalType": "uint256",
              "name": "timestamp",
              "type": "uint256"
            },
            {
              "internalType": "enum RemittanceContract.RemittanceStatus",
              "name": "status",
              "type": "uint8"
            },
            {
              "internalType": "string",
              "name": "remittanceReference",
              "type": "string"
            },
            {
              "internalType": "bool",
              "name": "isKycVerified",
              "type": "bool"
            }
          ],
          "internalType": "struct RemittanceContract.Remittance",
          "name": "",
          "type": "tuple"
        }
      ],
      "stateMutability": "view",
      "type": "function"
    },
    {
      "inputs": [],
      "name": "getSupportedTokens",
      "outputs": [
        {
          "internalType": "address[]",
          "name": "",
          "type": "address[]"
        }
      ],
      "stateMutability": "view",
      "type": "function"
    },
    {
      "inputs": [
        {
          "internalType": "address",
          "name": "user",
          "type": "address"
        }
      ],
      "name": "getUserProfile",
      "outputs": [
        {
          "components": [
            {
              "internalType": "string",
              "name": "phoneNumber",
              "type": "string"
            },
            {
              "internalType": "string",
              "name": "name",
              "type": "string"
            },
            {
              "internalType": "bool",
              "name": "isKycVerified",
              "type": "bool"
            },
            {
              "internalType": "uint256",
              "name": "totalSent",
              "type": "uint256"
            },
            {
              "internalType": "uint256",
              "name": "totalReceived",
              "type": "uint256"
            },
            {
              "internalType": "uint256",
              "name": "transactionCount",
              "type": "uint256"
            },
            {
              "internalType": "uint256",
              "name": "lastActivity",
              "type": "uint256"
            }
          ],
          "internalType": "struct RemittanceContract.UserProfile",
          "name": "",
          "type": "tuple"
        }
      ],
      "stateMutability": "view",
      "type": "function"
    },
    {
      "inputs": [
        {
          "internalType": "address",
          "name": "user",
          "type": "address"
        }
      ],
      "name": "getUserRemittances",
      "outputs": [
        {
          "internalType": "uint256[]",
          "name": "",
          "type": "uint256[]"
        }
      ],
      "stateMutability": "view",
      "type": "function"
    },
    {
      "inputs": [],
      "name": "owner",
      "outputs": [
        {
          "internalType": "address",
          "name": "",
          "type": "address"
        }
      ],
      "stateMutability": "view",
      "type": "function"
    },
    {
      "inputs": [],
      "name": "pause",
      "outputs": [],
      "stateMutability": "nonpayable",
      "type": "function"
    },
    {
      "inputs": [],
      "name": "paused",
      "outputs": [
        {
          "internalType": "bool",
          "name": "",
          "type": "bool"
        }
      ],
      "stateMutability": "view",
      "type": "function"
    },
    {
      "inputs": [
        {
          "internalType": "string",
          "name": "",
          "type": "string"
        }
      ],
      "name": "phoneToAddress",
      "outputs": [
        {
          "internalType": "address",
          "name": "",
          "type": "address"
        }
      ],
      "stateMutability": "view",
      "type": "function"
    },
    {
      "inputs": [
        {
          "internalType": "string",
          "name": "phoneNumber",
          "type": "string"
        },
        {
          "internalType": "string",
          "name": "name",
          "type": "string"
        }
      ],
      "name": "registerUser",
      "outputs": [],
      "stateMutability": "nonpayable",
      "type": "function"
    },
    {
      "inputs": [],
      "name": "remittanceCounter",
      "outputs": [
        {
          "internalType": "uint256",
          "name": "",
          "type": "uint256"
        }
      ],
      "stateMutability": "view",
      "type": "function"
    },
    {
      "inputs": [
        {
          "internalType": "uint256",
          "name": "",
          "type": "uint256"
        }
      ],
      "name": "remittances",
      "outputs": [
        {
          "internalType": "uint256",
          "name": "id",
          "type": "uint256"
        },
        {
          "internalType": "address",
          "name": "sender",
          "type": "address"
        },
        {
          "internalType": "address",
          "name": "recipient",
          "type": "address"
        },
        {
          "internalType": "string",
          "name": "senderPhone",
          "type": "string"
        },
        {
          "internalType": "string",
          "name": "recipientPhone",
          "type": "string"
        },
        {
          "internalType": "address",
          "name": "token",
          "type": "address"
        },
        {
          "internalType": "uint256",
          "name": "amount",
          "type": "uint256"
        },
        {
          "internalType": "uint256",
          "name": "fee",
          "type": "uint256"
        },
        {
          "internalType": "uint256",
          "name": "exchangeRate",
          "type": "uint256"
        },
        {
          "internalType": "uint256",
          "name": "timestamp",
          "type": "uint256"
        },
        {
          "internalType": "enum RemittanceContract.RemittanceStatus",
          "name": "status",
          "type": "uint8"
        },
        {
          "internalType": "string",
          "name": "remittanceReference",
          "type": "string"
        },
        {
          "internalType": "bool",
          "name": "isKycVerified",
          "type": "bool"
        }
      ],
      "stateMutability": "view",
      "type": "function"
    },
    {
      "inputs": [],
      "name": "renounceOwnership",
      "outputs": [],
      "stateMutability": "nonpayable",
      "type": "function"
    },
    {
      "inputs": [
        {
          "internalType": "address",
          "name": "token",
          "type": "address"
        },
        {
          "internalType": "bool",
          "name": "supported",
          "type": "bool"
        }
      ],
      "name": "setSupportedToken",
      "outputs": [],
      "stateMutability": "nonpayable",
      "type": "function"
    },
    {
      "inputs": [
        {
          "internalType": "address",
          "name": "",
          "type": "address"
        }
      ],
      "name": "supportedTokens",
      "outputs": [
        {
          "internalType": "bool",
          "name": "",
          "type": "bool"
        }
      ],
      "stateMutability": "view",
      "type": "function"
    },
    {
      "inputs": [
        {
          "internalType": "uint256",
          "name": "",
          "type": "uint256"
        }
      ],
      "name": "tokenList",
      "outputs": [
        {
          "internalType": "address",
          "name": "",
          "type": "address"
        }
      ],
      "stateMutability": "view",
      "type": "function"
    },
    {
      "inputs": [
        {
          "internalType": "address",
          "name": "newOwner",
          "type": "address"
        }
      ],
      "name": "transferOwnership",
      "outputs": [],
      "stateMutability": "nonpayable",
      "type": "function"
    },
    {
      "inputs": [],
      "name": "unpause",
      "outputs": [],
      "stateMutability": "nonpayable",
      "type": "function"
    },
    {
      "inputs": [
        {
          "internalType": "uint256",
          "name": "newFeePercentage",
          "type": "uint256"
        }
      ],
      "name": "updateFeePercentage",
      "outputs": [],
      "stateMutability": "nonpayable",
      "type": "function"
    },
    {
      "inputs": [
        {
          "internalType": "address",
          "name": "",
          "type": "address"
        }
      ],
      "name": "userProfiles",
      "outputs": [
        {
          "internalType": "string",
          "name": "phoneNumber",
          "type": "string"
        },
        {
          "internalType": "string",
          "name": "name",
          "type": "string"
        },
        {
          "internalType": "bool",
          "name": "isKycVerified",
          "type": "bool"
        },
        {
          "internalType": "uint256",
          "name": "totalSent",
          "type": "uint256"
        },
        {
          "internalType": "uint256",
          "name": "totalReceived",
          "type": "uint256"
        },
        {
          "internalType": "uint256",
          "name": "transactionCount",
          "type": "uint256"
        },
        {
          "internalType": "uint256",
          "name": "lastActivity",
          "type": "uint256"
        }
      ],
      "stateMutability": "view",
      "type": "function"
    },
    {
      "inputs": [
        {
          "internalType": "address",
          "name": "user",
          "type": "address"
        },
        {
          "internalType": "bool",
          "name": "verified",
          "type": "bool"
        }
      ],
      "name": "verifyKyc",
      "outputs": [],
      "stateMutability": "nonpayable",
      "type": "function"
    }
  ],
  "bytecode": "0x6080604052603260075534801561001557600080fd5b506001600055338061004157604051631e4fbdf760e01b81526000600482015260240160405180910390fd5b61004a81610050565b506100a2565b600180546001600160a01b038381166001600160a01b0319831681179093556040519116919082907f8be0079c531659141344cd1fd0a4f28419497f9722a3daafe3b4186f6b6457e090600090a35050565b612a0b80620000b26000396000f3fe608060405234801561001057600080fd5b50600436106101a95760003560e01c806373e66f43116100f95780639ead722211610097578063b6846f1511610071578063b6846f15146103ef578063d3c7c2c714610402578063e798646614610417578063f2fde38b1461042a57600080fd5b80639ead7222146103a7578063a001ecdd146103ba578063b4ea0d5f146103c357600080fd5b80639826e40d116100d35780639826e40d1461034b578063987ee1561461035457806399cf7c92146103745780639d7043e91461039457600080fd5b806373e66f43146103125780638456cb59146103325780638da5cb5b1461033a57600080fd5b80633f4ba83a116101665780635de7f901116101405780635de7f901146102c157806368c4ac26146102d45780636cad3fb0146102f7578063715018a61461030a57600080fd5b80633f4ba83a14610284578063558e44d31461028c5780635c975abb146102a357600080fd5b8063096e3aa2146101ae5780631d2e4afd146101d75780631d8b6ae7146101ec578063230e7c32146101ff5780632ae1700c1461024b578063332d56d71461025e575b600080fd5b6101c16101bc366004612177565b61043d565b6040516101ce91906121e9565b60405180910390f35b6101ea6101e536600461229f565b6104d7565b005b6101ea6101fa366004612303565b6107a2565b61023361020d36600461231c565b80516020818301810180516004825292820191909301209152546001600160a01b031681565b6040516001600160a01b0390911681526020016101ce565b61023361025936600461231c565b610956565b61027161026c366004612177565b610987565b6040516101ce9796959493929190612359565b6101ea610ad6565b6102956101f481565b6040519081526020016101ce565b600154600160a01b900460ff165b60405190151581526020016101ce565b6101ea6102cf366004612303565b610ae8565b6102b16102e2366004612177565b60086020526000908152604090205460ff1681565b6101ea610305366004612303565b610d95565b6101ea610e23565b610325610320366004612303565b610e35565b6040516101ce91906123e1565b6101ea6110c4565b6001546001600160a01b0316610233565b61029560065481565b610367610362366004612177565b6110d4565b6040516101ce91906124fd565b610387610382366004612177565b61129a565b6040516101ce9190612578565b6101ea6103a23660046125bc565b611423565b6102336103b5366004612303565b611947565b61029560075481565b6103d66103d1366004612303565b611971565b6040516101ce9d9c9b9a99989796959493929190612653565b6101ea6103fd366004612708565b611b8f565b61040a611c5a565b6040516101ce9190612744565b6101ea610425366004612708565b611cbc565b6101ea610438366004612177565b611de2565b6005602052600090815260409020805461045690612785565b80601f016020809104026020016040519081016040528092919081815260200182805461048290612785565b80156104cf5780601f106104a4576101008083540402835291602001916104cf565b820191906000526020600020905b8154815290600101906020018083116104b257829003601f168201915b505050505081565b60008251116105255760405162461bcd60e51b8152602060048201526015602482015274141a1bdb99481b9d5b58995c881c995c5d5a5c9959605a1b60448201526064015b60405180910390fd5b60008151116105665760405162461bcd60e51b815260206004820152600d60248201526c13985b59481c995c5d5a5c9959609a1b604482015260640161051c565b60006001600160a01b031660048360405161058191906127bf565b908152604051908190036020019020546001600160a01b0316146105e75760405162461bcd60e51b815260206004820152601860248201527f50686f6e6520616c726561647920726567697374657265640000000000000000604482015260640161051c565b336000908152600360205260409020805461060190612785565b1590506106505760405162461bcd60e51b815260206004820152601760248201527f5573657220616c72656164792072656769737465726564000000000000000000604482015260640161051c565b6040805160e08101825283815260208082018490526000828401819052606083018190526080830181905260a083018190524260c0840152338152600390915291909120815181906106a29082612829565b50602082015160018201906106b79082612829565b5060408201518160020160006101000a81548160ff021916908315150217905550606082015181600301556080820151816004015560a0820151816005015560c082015181600601559050503360048360405161071491906127bf565b908152604080516020928190038301902080546001600160a01b0319166001600160a01b03949094169390931790925533600090815260059091522061075a8382612829565b50336001600160a01b03167f92822564bab8864c3a47b34e8d23fbce5c46234eb5da261f94087b995ac0f33b83836040516107969291906128e9565b60405180910390a25050565b6107aa611e1d565b600081815260026020526040902080546107fd5760405162461bcd60e51b815260206004820152601460248201527314995b5a5d1d185b98d9481b9bdd08199bdd5b9960621b604482015260640161051c565b6000600a82015460ff166004811115610818576108186123a9565b146108555760405162461bcd60e51b815260206004820152600d60248201526c10d85b9b9bdd0818d85b98d95b609a1b604482015260640161051c565b60018101546001600160a01b031633146108a05760405162461bcd60e51b815260206004820152600c60248201526b155b985d5d1a1bdc9a5e995960a21b604482015260640161051c565b600a8101805460ff19166004179055600781015460068201546000916108c59161292d565b600183015460058401549192506108e9916001600160a01b03908116911683611e47565b827f085dd01dfa04d58523a4e3135fa8938d79ab39eeba0cf2cb846f917d2a64b47060405161093f9060208082526013908201527221b0b731b2b63632b210313c9039b2b73232b960691b604082015260600190565b60405180910390a250506109536001600055565b50565b600060048260405161096891906127bf565b908152604051908190036020019020546001600160a01b031692915050565b6003602052600090815260409020805481906109a290612785565b80601f01602080910402602001604051908101604052809291908181526020018280546109ce90612785565b8015610a1b5780601f106109f057610100808354040283529160200191610a1b565b820191906000526020600020905b8154815290600101906020018083116109fe57829003601f168201915b505050505090806001018054610a3090612785565b80601f0160208091040260200160405190810160405280929190818152602001828054610a5c90612785565b8015610aa95780601f10610a7e57610100808354040283529160200191610aa9565b820191906000526020600020905b815481529060010190602001808311610a8c57829003601f168201915b5050506002840154600385015460048601546005870154600690970154959660ff90931695919450925087565b610ade611eab565b610ae6611ed8565b565b610af0611f2d565b610af8611e1d565b60008181526002602052604090208054610b4b5760405162461bcd60e51b815260206004820152601460248201527314995b5a5d1d185b98d9481b9bdd08199bdd5b9960621b604482015260640161051c565b6000600a82015460ff166004811115610b6657610b666123a9565b14610ba45760405162461bcd60e51b815260206004820152600e60248201526d496e76616c69642073746174757360901b604482015260640161051c565b60028101546001600160a01b0316331480610bc957506001546001600160a01b031633145b610c045760405162461bcd60e51b815260206004820152600c60248201526b155b985d5d1a1bdc9a5e995960a21b604482015260640161051c565b600a8101805460ff19166001179055600281015460068201546005830154610c3a926001600160a01b0391821692911690611e47565b600781015415610c7357610c73610c596001546001600160a01b031690565b600783015460058401546001600160a01b03169190611e47565b600a8101805460ff191660029081179091558101546001600160a01b031660009081526003602052604081208054610caa90612785565b90501115610d3f57600681015460028201546001600160a01b031660009081526003602052604081206004018054909190610ce690849061292d565b909155505060028101546001600160a01b03166000908152600360205260408120600501805491610d1683612946565b909155505060028101546001600160a01b03166000908152600360205260409020426006909101555b600281015460068201546040519081526001600160a01b039091169083907f6d74db8ae01a3dbd4b27059d5065ede6f515adc14de4678cc4eabb244dc95ecc9060200160405180910390a3506109536001600055565b610d9d611eab565b6101f4811115610dde5760405162461bcd60e51b815260206004820152600c60248201526b08ccaca40e8dede40d0d2ced60a31b604482015260640161051c565b600780549082905560408051828152602081018490527f528d9479e9f9889a87a3c30c7f7ba537e5e59c4c85a37733b16e57c62df61302910160405180910390a15050565b610e2b611eab565b610ae66000611f58565b610e3d6120c7565b60008281526002602081815260409283902083516101a0810185528154815260018201546001600160a01b03908116938201939093529281015490911692820192909252600382018054919291606084019190610e9990612785565b80601f0160208091040260200160405190810160405280929190818152602001828054610ec590612785565b8015610f125780601f10610ee757610100808354040283529160200191610f12565b820191906000526020600020905b815481529060010190602001808311610ef557829003601f168201915b50505050508152602001600482018054610f2b90612785565b80601f0160208091040260200160405190810160405280929190818152602001828054610f5790612785565b8015610fa45780601f10610f7957610100808354040283529160200191610fa4565b820191906000526020600020905b815481529060010190602001808311610f8757829003601f168201915b505050918352505060058201546001600160a01b03166020820152600682015460408201526007820154606082015260088201546080820152600982015460a0820152600a82015460c09091019060ff166004811115611006576110066123a9565b6004811115611017576110176123a9565b8152602001600b8201805461102b90612785565b80601f016020809104026020016040519081016040528092919081815260200182805461105790612785565b80156110a45780601f10611079576101008083540402835291602001916110a4565b820191906000526020600020905b81548152906001019060200180831161108757829003601f168201915b5050509183525050600c919091015460ff16151560209091015292915050565b6110cc611eab565b610ae6611faa565b6111166040518060e001604052806060815260200160608152602001600015158152602001600081526020016000815260200160008152602001600081525090565b6001600160a01b03821660009081526003602052604090819020815160e0810190925280548290829061114890612785565b80601f016020809104026020016040519081016040528092919081815260200182805461117490612785565b80156111c15780601f10611196576101008083540402835291602001916111c1565b820191906000526020600020905b8154815290600101906020018083116111a457829003601f168201915b505050505081526020016001820180546111da90612785565b80601f016020809104026020016040519081016040528092919081815260200182805461120690612785565b80156112535780601f1061122857610100808354040283529160200191611253565b820191906000526020600020905b81548152906001019060200180831161123657829003601f168201915b5050509183525050600282015460ff161515602082015260038201546040820152600482015460608201526005820154608082015260069091015460a09091015292915050565b6060600060065467ffffffffffffffff8111156112b9576112b96121fc565b6040519080825280602002602001820160405280156112e2578160200160208202803683370190505b509050600060015b600654811161137e576000818152600260205260409020600101546001600160a01b038681169116148061133b5750600081815260026020819052604090912001546001600160a01b038681169116145b1561136c57808383815181106113535761135361295f565b60209081029190910101528161136881612946565b9250505b8061137681612946565b9150506112ea565b5060008167ffffffffffffffff81111561139a5761139a6121fc565b6040519080825280602002602001820160405280156113c3578160200160208202803683370190505b50905060005b8281101561141a578381815181106113e3576113e361295f565b60200260200101518282815181106113fd576113fd61295f565b60209081029190910101528061141281612946565b9150506113c9565b50949350505050565b6001600160a01b038416600090815260086020526040902054849060ff166114835760405162461bcd60e51b8152602060048201526013602482015272151bdad95b881b9bdd081cdd5c1c1bdc9d1959606a1b604482015260640161051c565b336000818152600360205260408120805461149d90612785565b9050116114e25760405162461bcd60e51b8152602060048201526013602482015272155cd95c881b9bdd081c9959da5cdd195c9959606a1b604482015260640161051c565b6114ea611f2d565b6114f2611e1d565b6001600160a01b03881661153c5760405162461bcd60e51b8152602060048201526011602482015270125b9d985b1a59081c9958da5c1a595b9d607a1b604482015260640161051c565b6000851161158c5760405162461bcd60e51b815260206004820152601d60248201527f416d6f756e74206d7573742062652067726561746572207468616e2030000000604482015260640161051c565b60008751116115dd5760405162461bcd60e51b815260206004820152601860248201527f526563697069656e742070686f6e652072657175697265640000000000000000604482015260640161051c565b6000612710600754876115f09190612975565b6115fa919061298c565b90506000611608828861292d565b905061161f6001600160a01b038916333084611fed565b6006805490600061162f83612946565b9091555050604080516101a08101825260065481523360208083018290526001600160a01b038e168385015260009182526003905291909120805460608301919061167990612785565b80601f01602080910402602001604051908101604052809291908181526020018280546116a590612785565b80156116f25780601f106116c7576101008083540402835291602001916116f2565b820191906000526020600020905b8154815290600101906020018083116116d557829003601f168201915b505050505081526020018a8152602001896001600160a01b031681526020018881526020018381526020018781526020014281526020016000600481111561173c5761173c6123a9565b815260208082018890523360009081526003808352604080832060029081015460ff1615159582019590955260065483528484529182902085518155928501516001840180546001600160a01b03199081166001600160a01b03938416179091559286015194840180549093169416939093179055606083015190918201906117c59082612829565b50608082015160048201906117da9082612829565b5060a08201516005820180546001600160a01b0319166001600160a01b0390921691909117905560c0820151600682015560e0820151600782015561010082015160088201556101208201516009820155610140820151600a8201805460ff1916600183600481111561184f5761184f6123a9565b0217905550610160820151600b8201906118699082612829565b506101809190910151600c909101805460ff191691151591909117905533600090815260036020819052604082200180548992906118a890849061292d565b90915550503360009081526003602052604081206005018054916118cb83612946565b90915550503360008181526003602052604090819020426006918201555490516001600160a01b038d169291907f037c13b648472da7e35a2d3095f8bee0e3b3af7eacb4df2964c6ff6a773654b690611929908d908d908c906129ae565b60405180910390a4505061193d6001600055565b5050505050505050565b6009818154811061195757600080fd5b6000918252602090912001546001600160a01b0316905081565b6002602081905260009182526040909120805460018201549282015460038301805492946001600160a01b03908116949216926119ad90612785565b80601f01602080910402602001604051908101604052809291908181526020018280546119d990612785565b8015611a265780601f106119fb57610100808354040283529160200191611a26565b820191906000526020600020905b815481529060010190602001808311611a0957829003601f168201915b505050505090806004018054611a3b90612785565b80601f0160208091040260200160405190810160405280929190818152602001828054611a6790612785565b8015611ab45780601f10611a8957610100808354040283529160200191611ab4565b820191906000526020600020905b815481529060010190602001808311611a9757829003601f168201915b5050505060058301546006840154600785015460088601546009870154600a880154600b8901805498996001600160a01b039097169895975093959294919360ff9091169291611b0390612785565b80601f0160208091040260200160405190810160405280929190818152602001828054611b2f90612785565b8015611b7c5780601f10611b5157610100808354040283529160200191611b7c565b820191906000526020600020905b815481529060010190602001808311611b5f57829003601f168201915b505050600c909301549192505060ff168d565b611b97611eab565b6001600160a01b03821660009081526003602052604081208054611bba90612785565b905011611bff5760405162461bcd60e51b8152602060048201526013602482015272155cd95c881b9bdd081c9959da5cdd195c9959606a1b604482015260640161051c565b6001600160a01b038216600081815260036020908152604091829020600201805460ff191685151590811790915591519182527f56630bce62637c61f75690e6d06fae1782bcb5208fa536eff58b0ff669d0d5dc9101610796565b60606009805480602002602001604051908101604052809291908181526020018280548015611cb257602002820191906000526020600020905b81546001600160a01b03168152600190910190602001808311611c94575b5050505050905090565b611cc4611eab565b6001600160a01b0382166000908152600860205260409020805460ff19168215801591909117909155611da5576000805b600954811015611d5157836001600160a01b031660098281548110611d1c57611d1c61295f565b6000918252602090912001546001600160a01b031603611d3f5760019150611d51565b80611d4981612946565b915050611cf5565b5080611da357600980546001810182556000919091527f6e1540171b6c0c960b71a7020d9f60077f6af931a8bbf590da0223dacf75c7af0180546001600160a01b0319166001600160a01b0385161790555b505b816001600160a01b03167f654ff2be0f58b1b437adcc6ff9868ab309fc9979c02811bca8f9a7bd95a217b682604051610796911515815260200190565b611dea611eab565b6001600160a01b038116611e1457604051631e4fbdf760e01b81526000600482015260240161051c565b61095381611f58565b600260005403611e4057604051633ee5aeb560e01b815260040160405180910390fd5b6002600055565b6040516001600160a01b03838116602483015260448201839052611ea691859182169063a9059cbb906064015b604051602081830303815290604052915060e01b6020820180516001600160e01b03838183161783525050505061202c565b505050565b6001546001600160a01b03163314610ae65760405163118cdaa760e01b815233600482015260240161051c565b611ee061209d565b6001805460ff60a01b191690557f5db9ee0a495bf2e6ff9c91a7834c1ba4fdd244a5e8aa4e537bd38aeae4b073aa335b6040516001600160a01b03909116815260200160405180910390a1565b600154600160a01b900460ff1615610ae65760405163d93c066560e01b815260040160405180910390fd5b600180546001600160a01b038381166001600160a01b0319831681179093556040519116919082907f8be0079c531659141344cd1fd0a4f28419497f9722a3daafe3b4186f6b6457e090600090a35050565b611fb2611f2d565b6001805460ff60a01b1916600160a01b1790557f62e78cea01bee320cd4e420270b5ea74000d11b0c9f74754ebdbfc544b05a258611f103390565b6040516001600160a01b0384811660248301528381166044830152606482018390526120269186918216906323b872dd90608401611e74565b50505050565b600080602060008451602086016000885af18061204f576040513d6000823e3d81fd5b50506000513d91508115612067578060011415612074565b6001600160a01b0384163b155b1561202657604051635274afe760e01b81526001600160a01b038516600482015260240161051c565b600154600160a01b900460ff16610ae657604051638dfc202b60e01b815260040160405180910390fd5b604051806101a001604052806000815260200160006001600160a01b0316815260200160006001600160a01b03168152602001606081526020016060815260200160006001600160a01b031681526020016000815260200160008152602001600081526020016000815260200160006004811115612147576121476123a9565b815260606020820152600060409091015290565b80356001600160a01b038116811461217257600080fd5b919050565b60006020828403121561218957600080fd5b6121928261215b565b9392505050565b60005b838110156121b457818101518382015260200161219c565b50506000910152565b600081518084526121d5816020860160208601612199565b601f01601f19169290920160200192915050565b60208152600061219260208301846121bd565b634e487b7160e01b600052604160045260246000fd5b600082601f83011261222357600080fd5b813567ffffffffffffffff8082111561223e5761223e6121fc565b604051601f8301601f19908116603f01168101908282118183101715612266576122666121fc565b8160405283815286602085880101111561227f57600080fd5b836020870160208301376000602085830101528094505050505092915050565b600080604083850312156122b257600080fd5b823567ffffffffffffffff808211156122ca57600080fd5b6122d686838701612212565b935060208501359150808211156122ec57600080fd5b506122f985828601612212565b9150509250929050565b60006020828403121561231557600080fd5b5035919050565b60006020828403121561232e57600080fd5b813567ffffffffffffffff81111561234557600080fd5b61235184828501612212565b949350505050565b60e08152600061236c60e083018a6121bd565b828103602084015261237e818a6121bd565b971515604084015250506060810194909452608084019290925260a083015260c09091015292915050565b634e487b7160e01b600052602160045260246000fd5b600581106123dd57634e487b7160e01b600052602160045260246000fd5b9052565b60208152815160208201526000602083015161240860408401826001600160a01b03169052565b5060408301516001600160a01b03811660608401525060608301516101a080608085015261243a6101c08501836121bd565b91506080850151601f19808685030160a087015261245884836121bd565b935060a0870151915061247660c08701836001600160a01b03169052565b60c087015160e08781019190915287015161010080880191909152870151610120808801919091528701516101408088019190915287015191506101606124bf818801846123bf565b808801519250506101808187860301818801526124dc85846121bd565b945080880151925050506124f38286018215159052565b5090949350505050565b602081526000825160e0602084015261251a6101008401826121bd565b90506020840151601f1984830301604085015261253782826121bd565b91505060408401511515606084015260608401516080840152608084015160a084015260a084015160c084015260c084015160e08401528091505092915050565b6020808252825182820181905260009190848201906040850190845b818110156125b057835183529284019291840191600101612594565b50909695505050505050565b60008060008060008060c087890312156125d557600080fd5b6125de8761215b565b9550602087013567ffffffffffffffff808211156125fb57600080fd5b6126078a838b01612212565b965061261560408a0161215b565b9550606089013594506080890135935060a089013591508082111561263957600080fd5b5061264689828a01612212565b9150509295509295509295565b8d81526001600160a01b038d811660208301528c16604082015260006101a08060608401526126848184018e6121bd565b90508281036080840152612698818d6121bd565b6001600160a01b038c1660a085015290508960c08401528860e084015287610100840152866101208401526126d16101408401876123bf565b8281036101608401526126e481866121bd565b9150506126f661018083018415159052565b9e9d5050505050505050505050505050565b6000806040838503121561271b57600080fd5b6127248361215b565b91506020830135801515811461273957600080fd5b809150509250929050565b6020808252825182820181905260009190848201906040850190845b818110156125b05783516001600160a01b031683529284019291840191600101612760565b600181811c9082168061279957607f821691505b6020821081036127b957634e487b7160e01b600052602260045260246000fd5b50919050565b600082516127d1818460208701612199565b9190910192915050565b601f821115611ea657600081815260208120601f850160051c810160208610156128025750805b601f850160051c820191505b818110156128215782815560010161280e565b505050505050565b815167ffffffffffffffff811115612843576128436121fc565b612857816128518454612785565b846127db565b602080601f83116001811461288c57600084156128745750858301515b600019600386901b1c1916600185901b178555612821565b600085815260208120601f198616915b828110156128bb5788860151825594840194600190910190840161289c565b50858210156128d95787850151600019600388901b60f8161c191681555b5050505050600190811b01905550565b6040815260006128fc60408301856121bd565b828103602084015261290e81856121bd565b95945050505050565b634e487b7160e01b600052601160045260246000fd5b8082018082111561294057612940612917565b92915050565b60006001820161295857612958612917565b5060010190565b634e487b7160e01b600052603260045260246000fd5b808202811582820484141761294057612940612917565b6000826129a957634e487b7160e01b600052601260045260246000fd5b500490565b60018060a01b038416815282602082015260606040820152600061290e60608301846121bd56fea2646970667358221220e07392e046457c2875d9544896b856d27cd1d9cd67cc161d30945d29d68df65564736f6c63430008140033",
  "linkReferences": {},
  "deployedLinkReferences": {}
}