{
  "_format": "hh-sol-artifact-1",
  "contractName": "KycAmlContract",
  "sourceName": "contracts/KycAmlContract.sol",
  "abi": [
    {
      "inputs": [],
      "stateMutability": "nonpayable",
      "type": "constructor"
    },
    {
      "inputs": [],
      "name": "EnforcedPause",
      "type": "error"
    },
    {
      "inputs": [],
      "name": "ExpectedPause",
      "type": "error"
    },
    {
      "inputs": [
        {
          "internalType": "address",
          "name": "owner",
          "type": "address"
        }
      ],
      "name": "OwnableInvalidOwner",
      "type": "error"
    },
    {
      "inputs": [
        {
          "internalType": "address",
          "name": "account",
          "type": "address"
        }
      ],
      "name": "OwnableUnauthorizedAccount",
      "type": "error"
    },
    {
      "anonymous": false,
      "inputs": [
        {
          "indexed": true,
          "internalType": "address",
          "name": "user",
          "type": "address"
        },
        {
          "indexed": false,
          "internalType": "bool",
          "name": "isSanctioned",
          "type": "bool"
        },
        {
          "indexed": false,
          "internalType": "bool",
          "name": "isPep",
          "type": "bool"
        },
        {
          "indexed": false,
          "internalType": "string",
          "name": "riskScore",
          "type": "string"
        }
      ],
      "name": "AmlCheckPerformed",
      "type": "event"
    },
    {
      "anonymous": false,
      "inputs": [
        {
          "indexed": true,
          "internalType": "address",
          "name": "user",
          "type": "address"
        },
        {
          "indexed": false,
          "internalType": "string",
          "name": "reason",
          "type": "string"
        }
      ],
      "name": "KycRejected",
      "type": "event"
    },
    {
      "anonymous": false,
      "inputs": [
        {
          "indexed": true,
          "internalType": "address",
          "name": "user",
          "type": "address"
        },
        {
          "indexed": false,
          "internalType": "string",
          "name": "documentHash",
          "type": "string"
        },
        {
          "indexed": false,
          "internalType": "string",
          "name": "documentType",
          "type": "string"
        },
        {
          "indexed": false,
          "internalType": "string",
          "name": "country",
          "type": "string"
        }
      ],
      "name": "KycSubmitted",
      "type": "event"
    },
    {
      "anonymous": false,
      "inputs": [
        {
          "indexed": true,
          "internalType": "address",
          "name": "user",
          "type": "address"
        },
        {
          "indexed": false,
          "internalType": "enum KycAmlContract.KycStatus",
          "name": "status",
          "type": "uint8"
        },
        {
          "indexed": false,
          "internalType": "uint256",
          "name": "expiryDate",
          "type": "uint256"
        }
      ],
      "name": "KycVerified",
      "type": "event"
    },
    {
      "anonymous": false,
      "inputs": [
        {
          "indexed": true,
          "internalType": "address",
          "name": "previousOwner",
          "type": "address"
        },
        {
          "indexed": true,
          "internalType": "address",
          "name": "newOwner",
          "type": "address"
        }
      ],
      "name": "OwnershipTransferred",
      "type": "event"
    },
    {
      "anonymous": false,
      "inputs": [
        {
          "indexed": false,
          "internalType": "address",
          "name": "account",
          "type": "address"
        }
      ],
      "name": "Paused",
      "type": "event"
    },
    {
      "anonymous": false,
      "inputs": [
        {
          "indexed": true,
          "internalType": "string",
          "name": "addressHash",
          "type": "string"
        },
        {
          "indexed": false,
          "internalType": "bool",
          "name": "pep",
          "type": "bool"
        }
      ],
      "name": "PepAddressAdded",
      "type": "event"
    },
    {
      "anonymous": false,
      "inputs": [
        {
          "indexed": true,
          "internalType": "string",
          "name": "addressHash",
          "type": "string"
        },
        {
          "indexed": false,
          "internalType": "bool",
          "name": "sanctioned",
          "type": "bool"
        }
      ],
      "name": "SanctionedAddressAdded",
      "type": "event"
    },
    {
      "anonymous": false,
      "inputs": [
        {
          "indexed": false,
          "internalType": "address",
          "name": "account",
          "type": "address"
        }
      ],
      "name": "Unpaused",
      "type": "event"
    },
    {
      "inputs": [],
      "name": "KYC_EXPIRY_DAYS",
      "outputs": [
        {
          "internalType": "uint256",
          "name": "",
          "type": "uint256"
        }
      ],
      "stateMutability": "view",
      "type": "function"
    },
    {
      "inputs": [],
      "name": "MIN_AMOUNT_REQUIRING_KYC",
      "outputs": [
        {
          "internalType": "uint256",
          "name": "",
          "type": "uint256"
        }
      ],
      "stateMutability": "view",
      "type": "function"
    },
    {
      "inputs": [
        {
          "internalType": "string",
          "name": "addressHash",
          "type": "string"
        },
        {
          "internalType": "bool",
          "name": "pep",
          "type": "bool"
        }
      ],
      "name": "addPepAddress",
      "outputs": [],
      "stateMutability": "nonpayable",
      "type": "function"
    },
    {
      "inputs": [
        {
          "internalType": "string",
          "name": "addressHash",
          "type": "string"
        },
        {
          "internalType": "bool",
          "name": "sanctioned",
          "type": "bool"
        }
      ],
      "name": "addSanctionedAddress",
      "outputs": [],
      "stateMutability": "nonpayable",
      "type": "function"
    },
    {
      "inputs": [
        {
          "internalType": "address",
          "name": "",
          "type": "address"
        },
        {
          "internalType": "uint256",
          "name": "",
          "type": "uint256"
        }
      ],
      "name": "amlChecks",
      "outputs": [
        {
          "internalType": "address",
          "name": "user",
          "type": "address"
        },
        {
          "internalType": "uint256",
          "name": "checkDate",
          "type": "uint256"
        },
        {
          "internalType": "bool",
          "name": "isSanctioned",
          "type": "bool"
        },
        {
          "internalType": "bool",
          "name": "isPep",
          "type": "bool"
        },
        {
          "internalType": "string",
          "name": "riskScore",
          "type": "string"
        },
        {
          "internalType": "string",
          "name": "notes",
          "type": "string"
        }
      ],
      "stateMutability": "view",
      "type": "function"
    },
    {
      "inputs": [
        {
          "internalType": "address",
          "name": "user",
          "type": "address"
        }
      ],
      "name": "getAmlChecks",
      "outputs": [
        {
          "components": [
            {
              "internalType": "address",
              "name": "user",
              "type": "address"
            },
            {
              "internalType": "uint256",
              "name": "checkDate",
              "type": "uint256"
            },
            {
              "internalType": "bool",
              "name": "isSanctioned",
              "type": "bool"
            },
            {
              "internalType": "bool",
              "name": "isPep",
              "type": "bool"
            },
            {
              "internalType": "string",
              "name": "riskScore",
              "type": "string"
            },
            {
              "internalType": "string",
              "name": "notes",
              "type": "string"
            }
          ],
          "internalType": "struct KycAmlContract.AmlCheck[]",
          "name": "",
          "type": "tuple[]"
        }
      ],
      "stateMutability": "view",
      "type": "function"
    },
    {
      "inputs": [
        {
          "internalType": "address",
          "name": "user",
          "type": "address"
        }
      ],
      "name": "getKycRecord",
      "outputs": [
        {
          "components": [
            {
              "internalType": "address",
              "name": "user",
              "type": "address"
            },
            {
              "internalType": "string",
              "name": "documentHash",
              "type": "string"
            },
            {
              "internalType": "string",
              "name": "documentType",
              "type": "string"
            },
            {
              "internalType": "uint256",
              "name": "verificationDate",
              "type": "uint256"
            },
            {
              "internalType": "uint256",
              "name": "expiryDate",
              "type": "uint256"
            },
            {
              "internalType": "enum KycAmlContract.KycStatus",
              "name": "status",
              "type": "uint8"
            },
            {
              "internalType": "string",
              "name": "country",
              "type": "string"
            },
            {
              "internalType": "string",
              "name": "riskLevel",
              "type": "string"
            },
            {
              "internalType": "bool",
              "name": "isActive",
              "type": "bool"
            }
          ],
          "internalType": "struct KycAmlContract.KycRecord",
          "name": "",
          "type": "tuple"
        }
      ],
      "stateMutability": "view",
      "type": "function"
    },
    {
      "inputs": [
        {
          "internalType": "address",
          "name": "user",
          "type": "address"
        }
      ],
      "name": "getLatestAmlCheck",
      "outputs": [
        {
          "components": [
            {
              "internalType": "address",
              "name": "user",
              "type": "address"
            },
            {
              "internalType": "uint256",
              "name": "checkDate",
              "type": "uint256"
            },
            {
              "internalType": "bool",
              "name": "isSanctioned",
              "type": "bool"
            },
            {
              "internalType": "bool",
              "name": "isPep",
              "type": "bool"
            },
            {
              "internalType": "string",
              "name": "riskScore",
              "type": "string"
            },
            {
              "internalType": "string",
              "name": "notes",
              "type": "string"
            }
          ],
          "internalType": "struct KycAmlContract.AmlCheck",
          "name": "",
          "type": "tuple"
        }
      ],
      "stateMutability": "view",
      "type": "function"
    },
    {
      "inputs": [],
      "name": "getVerifiedUsers",
      "outputs": [
        {
          "internalType": "address[]",
          "name": "",
          "type": "address[]"
        }
      ],
      "stateMutability": "view",
      "type": "function"
    },
    {
      "inputs": [
        {
          "internalType": "address",
          "name": "user",
          "type": "address"
        }
      ],
      "name": "isKycVerified",
      "outputs": [
        {
          "internalType": "bool",
          "name": "",
          "type": "bool"
        }
      ],
      "stateMutability": "view",
      "type": "function"
    },
    {
      "inputs": [],
      "name": "kycCounter",
      "outputs": [
        {
          "internalType": "uint256",
          "name": "",
          "type": "uint256"
        }
      ],
      "stateMutability": "view",
      "type": "function"
    },
    {
      "inputs": [
        {
          "internalType": "address",
          "name": "",
          "type": "address"
        }
      ],
      "name": "kycRecords",
      "outputs": [
        {
          "internalType": "address",
          "name": "user",
          "type": "address"
        },
        {
          "internalType": "string",
          "name": "documentHash",
          "type": "string"
        },
        {
          "internalType": "string",
          "name": "documentType",
          "type": "string"
        },
        {
          "internalType": "uint256",
          "name": "verificationDate",
          "type": "uint256"
        },
        {
          "internalType": "uint256",
          "name": "expiryDate",
          "type": "uint256"
        },
        {
          "internalType": "enum KycAmlContract.KycStatus",
          "name": "status",
          "type": "uint8"
        },
        {
          "internalType": "string",
          "name": "country",
          "type": "string"
        },
        {
          "internalType": "string",
          "name": "riskLevel",
          "type": "string"
        },
        {
          "internalType": "bool",
          "name": "isActive",
          "type": "bool"
        }
      ],
      "stateMutability": "view",
      "type": "function"
    },
    {
      "inputs": [],
      "name": "owner",
      "outputs": [
        {
          "internalType": "address",
          "name": "",
          "type": "address"
        }
      ],
      "stateMutability": "view",
      "type": "function"
    },
    {
      "inputs": [],
      "name": "pause",
      "outputs": [],
      "stateMutability": "nonpayable",
      "type": "function"
    },
    {
      "inputs": [],
      "name": "paused",
      "outputs": [
        {
          "internalType": "bool",
          "name": "",
          "type": "bool"
        }
      ],
      "stateMutability": "view",
      "type": "function"
    },
    {
      "inputs": [
        {
          "internalType": "string",
          "name": "",
          "type": "string"
        }
      ],
      "name": "pepAddresses",
      "outputs": [
        {
          "internalType": "bool",
          "name": "",
          "type": "bool"
        }
      ],
      "stateMutability": "view",
      "type": "function"
    },
    {
      "inputs": [
        {
          "internalType": "address",
          "name": "user",
          "type": "address"
        }
      ],
      "name": "performAmlCheck",
      "outputs": [],
      "stateMutability": "nonpayable",
      "type": "function"
    },
    {
      "inputs": [
        {
          "internalType": "address",
          "name": "user",
          "type": "address"
        }
      ],
      "name": "reactivateKyc",
      "outputs": [],
      "stateMutability": "nonpayable",
      "type": "function"
    },
    {
      "inputs": [
        {
          "internalType": "address",
          "name": "user",
          "type": "address"
        },
        {
          "internalType": "string",
          "name": "reason",
          "type": "string"
        }
      ],
      "name": "rejectKyc",
      "outputs": [],
      "stateMutability": "nonpayable",
      "type": "function"
    },
    {
      "inputs": [],
      "name": "renounceOwnership",
      "outputs": [],
      "stateMutability": "nonpayable",
      "type": "function"
    },
    {
      "inputs": [
        {
          "internalType": "uint256",
          "name": "amount",
          "type": "uint256"
        }
      ],
      "name": "requiresKyc",
      "outputs": [
        {
          "internalType": "bool",
          "name": "",
          "type": "bool"
        }
      ],
      "stateMutability": "pure",
      "type": "function"
    },
    {
      "inputs": [
        {
          "internalType": "string",
          "name": "",
          "type": "string"
        }
      ],
      "name": "sanctionedAddresses",
      "outputs": [
        {
          "internalType": "bool",
          "name": "",
          "type": "bool"
        }
      ],
      "stateMutability": "view",
      "type": "function"
    },
    {
      "inputs": [
        {
          "internalType": "string",
          "name": "documentHash",
          "type": "string"
        },
        {
          "internalType": "string",
          "name": "documentType",
          "type": "string"
        },
        {
          "internalType": "string",
          "name": "country",
          "type": "string"
        }
      ],
      "name": "submitKyc",
      "outputs": [],
      "stateMutability": "nonpayable",
      "type": "function"
    },
    {
      "inputs": [
        {
          "internalType": "address",
          "name": "user",
          "type": "address"
        }
      ],
      "name": "suspendKyc",
      "outputs": [],
      "stateMutability": "nonpayable",
      "type": "function"
    },
    {
      "inputs": [
        {
          "internalType": "address",
          "name": "newOwner",
          "type": "address"
        }
      ],
      "name": "transferOwnership",
      "outputs": [],
      "stateMutability": "nonpayable",
      "type": "function"
    },
    {
      "inputs": [],
      "name": "unpause",
      "outputs": [],
      "stateMutability": "nonpayable",
      "type": "function"
    },
    {
      "inputs": [
        {
          "internalType": "uint256",
          "name": "",
          "type": "uint256"
        }
      ],
      "name": "verifiedUsers",
      "outputs": [
        {
          "internalType": "address",
          "name": "",
          "type": "address"
        }
      ],
      "stateMutability": "view",
      "type": "function"
    },
    {
      "inputs": [
        {
          "internalType": "address",
          "name": "user",
          "type": "address"
        },
        {
          "internalType": "enum KycAmlContract.KycStatus",
          "name": "status",
          "type": "uint8"
        },
        {
          "internalType": "string",
          "name": "riskLevel",
          "type": "string"
        }
      ],
      "name": "verifyKyc",
      "outputs": [],
      "stateMutability": "nonpayable",
      "type": "function"
    }
  ],
  "bytecode": "0x608060405234801561001057600080fd5b50338061003757604051631e4fbdf760e01b81526000600482015260240160405180910390fd5b61004081610046565b50610096565b600080546001600160a01b038381166001600160a01b0319831681178455604051919092169283917f8be0079c531659141344cd1fd0a4f28419497f9722a3daafe3b4186f6b6457e09190a35050565b61289280620000a66000396000f3fe608060405234801561001057600080fd5b50600436106101c45760003560e01c80638da5cb5b116100f9578063c37a4c5311610097578063f2fde38b11610071578063f2fde38b1461041d578063f335619614610430578063f6a413cc14610443578063fdb4d9611461045857600080fd5b8063c37a4c53146103d2578063df5cfc8f146103e5578063f022855d146103f857600080fd5b8063a480e93a116100d3578063a480e93a1461036f578063a73ced9e1461037f578063a8c4c3eb1461039f578063acbd857f146103bf57600080fd5b80638da5cb5b1461031d5780638f1c4afe1461032e5780639bb8a2391461035c57600080fd5b80635c975abb11610166578063715018a611610140578063715018a6146102c55780637c215cee146102cd5780637eb606e8146102ed5780638456cb591461031557600080fd5b80635c975abb1461025c578063642301451461027a5780636f7ebf411461029757600080fd5b80632ff22084116101a25780632ff220841461022157806330802b53146102385780633f4ba83a1461024b5780635a9206ef1461025357600080fd5b806307763ec3146101c95780630c1ee7ed146101f95780632ce82c391461020e575b600080fd5b6101dc6101d7366004611f48565b61046b565b6040516001600160a01b0390911681526020015b60405180910390f35b61020c610207366004612004565b610495565b005b61020c61021c366004612077565b61051b565b61022a60065481565b6040519081526020016101f0565b61020c6102463660046120c5565b6105fc565b61020c610969565b61022a61016d81565b600054600160a01b900460ff165b60405190151581526020016101f0565b61026a610288366004611f48565b683635c9adc5dea00000111590565b61026a6102a536600461214d565b805160208183018101805160038252928201919093012091525460ff1681565b61020c61097b565b6102e06102db36600461218a565b61098d565b6040516101f09190612267565b6103006102fb36600461218a565b610b68565b6040516101f099989796959493929190612301565b61020c610de6565b6000546001600160a01b03166101dc565b61026a61033c36600461214d565b805160208183018101805160048252928201919093012091525460ff1681565b61020c61036a36600461218a565b610df6565b61022a683635c9adc5dea0000081565b61039261038d36600461218a565b61100c565b6040516101f09190612395565b6103b26103ad36600461218a565b6112ed565b6040516101f09190612466565b61026a6103cd36600461218a565b61154d565b61020c6103e036600461218a565b6115d5565b61020c6103f3366004612479565b61168d565b61040b6104063660046124d3565b6118ea565b6040516101f0969594939291906124fd565b61020c61042b36600461218a565b611a63565b61020c61043e366004612004565b611aa1565b61044b611b1f565b6040516101f09190612553565b61020c61046636600461218a565b611b81565b6005818154811061047b57600080fd5b6000918252602090912001546001600160a01b0316905081565b61049d611c33565b806003836040516104ae91906125a0565b908152604051908190036020018120805492151560ff19909316929092179091556104da9083906125a0565b6040519081900381208215158252907fbb121c6b6edc0552cf7247dfb6185a126cb32e488867dbb00995c25024cadc69906020015b60405180910390a25050565b610523611c33565b6001600160a01b03821660009081526001602052604081206005015460ff166004811115610553576105536122c9565b146105965760405162461bcd60e51b815260206004820152600e60248201526d496e76616c69642073746174757360901b60448201526064015b60405180910390fd5b6001600160a01b0382166000818152600160205260409081902060058101805460ff19908116600217909155600890910180549091169055517fbd10f4738c32024002c9bf6af6f1cb6a809134d11442f573dbab20794b1f16529061050f9084906125bc565b610604611c60565b600083511161064e5760405162461bcd60e51b8152602060048201526016602482015275111bd8dd5b595b9d081a185cda081c995c5d5a5c995960521b604482015260640161058d565b60008251116106985760405162461bcd60e51b8152602060048201526016602482015275111bd8dd5b595b9d081d1e5c19481c995c5d5a5c995960521b604482015260640161058d565b60008151116106dc5760405162461bcd60e51b815260206004820152601060248201526f10dbdd5b9d1c9e481c995c5d5a5c995960821b604482015260640161058d565b60023360009081526001602052604090206005015460ff166004811115610705576107056122c9565b1480610737575060033360009081526001602052604090206005015460ff166004811115610735576107356122c9565b145b80610768575060043360009081526001602052604090206005015460ff166004811115610766576107666122c9565b145b6107be5760405162461bcd60e51b815260206004820152602160248201527f4b594320616c7265616479207375626d6974746564206f7220766572696669656044820152601960fa1b606482015260840161058d565b600680549060006107ce836125e5565b9190505550604051806101200160405280336001600160a01b0316815260200184815260200183815260200160008152602001600081526020016000600481111561081b5761081b6122c9565b8152602080820184905260408051808201825260068152656d656469756d60d01b81840152818401526000606090930183905233835260018083529220835181546001600160a01b0319166001600160a01b039091161781559083015190918201906108879082612687565b506040820151600282019061089c9082612687565b50606082015181600301556080820151816004015560a08201518160050160006101000a81548160ff021916908360048111156108db576108db6122c9565b021790555060c082015160068201906108f49082612687565b5060e082015160078201906109099082612687565b5061010091909101516008909101805460ff191691151591909117905560405133907fdef12d304a4f81df1629dd73321a0cc87591184819f263051a294903d6d8039c9061095c90869086908690612747565b60405180910390a2505050565b610971611c33565b610979611c8b565b565b610983611c33565b6109796000611ce0565b6001600160a01b0381166000908152600260209081526040808320805482518185028101850190935280835260609492939192909184015b82821015610b5d5760008481526020908190206040805160c0810182526005860290920180546001600160a01b03168352600181015493830193909352600283015460ff80821615159284019290925261010090041615156060820152600382018054919291608084019190610a3a906125fe565b80601f0160208091040260200160405190810160405280929190818152602001828054610a66906125fe565b8015610ab35780601f10610a8857610100808354040283529160200191610ab3565b820191906000526020600020905b815481529060010190602001808311610a9657829003601f168201915b50505050508152602001600482018054610acc906125fe565b80601f0160208091040260200160405190810160405280929190818152602001828054610af8906125fe565b8015610b455780601f10610b1a57610100808354040283529160200191610b45565b820191906000526020600020905b815481529060010190602001808311610b2857829003601f168201915b505050505081525050815260200190600101906109c5565b505050509050919050565b6001602081905260009182526040909120805491810180546001600160a01b0390931692610b95906125fe565b80601f0160208091040260200160405190810160405280929190818152602001828054610bc1906125fe565b8015610c0e5780601f10610be357610100808354040283529160200191610c0e565b820191906000526020600020905b815481529060010190602001808311610bf157829003601f168201915b505050505090806002018054610c23906125fe565b80601f0160208091040260200160405190810160405280929190818152602001828054610c4f906125fe565b8015610c9c5780601f10610c7157610100808354040283529160200191610c9c565b820191906000526020600020905b815481529060010190602001808311610c7f57829003601f168201915b5050506003840154600485015460058601546006870180549697939692955060ff909116935090610ccc906125fe565b80601f0160208091040260200160405190810160405280929190818152602001828054610cf8906125fe565b8015610d455780601f10610d1a57610100808354040283529160200191610d45565b820191906000526020600020905b815481529060010190602001808311610d2857829003601f168201915b505050505090806007018054610d5a906125fe565b80601f0160208091040260200160405190810160405280929190818152602001828054610d86906125fe565b8015610dd35780601f10610da857610100808354040283529160200191610dd3565b820191906000526020600020905b815481529060010190602001808311610db657829003601f168201915b5050506008909301549192505060ff1689565b610dee611c33565b610979611d30565b610dfe611c33565b60006003610e0b83611d73565b604051610e1891906125a0565b9081526040519081900360200190205460ff16905060006004610e3a84611d73565b604051610e4791906125a0565b9081526040805191829003602090810183205483830190925260038352626c6f7760e81b9083015260ff1691508215610e9b57506040805180820190915260048152630d0d2ced60e31b6020820152610ec0565b8115610ec057506040805180820190915260068152656d656469756d60d01b60208201525b6001600160a01b038481166000818152600260208181526040808420815160c081018352958652428684019081528a15158784019081528a151560608901908152608089018b8152855180870190965260138652724175746f6d6174656420414d4c20636865636b60681b8688015260a08a019590955283546001808201865594895295909720885160059096020180546001600160a01b03191695909916949094178855519087015590519185018054935161ffff1990941692151561ff0019169290921761010093151593909302929092179055519091906003820190610fa99082612687565b5060a08201516004820190610fbe9082612687565b505050836001600160a01b03167fa6de13028ce8c7943653f15bed5a920e0f0cde6092f16f818c79075a19ae8389848484604051610ffe9392919061278a565b60405180910390a250505050565b611014611ee3565b6001600160a01b038083166000908152600160208181526040928390208351610120810190945280549094168352908301805492939291840191611057906125fe565b80601f0160208091040260200160405190810160405280929190818152602001828054611083906125fe565b80156110d05780601f106110a5576101008083540402835291602001916110d0565b820191906000526020600020905b8154815290600101906020018083116110b357829003601f168201915b505050505081526020016002820180546110e9906125fe565b80601f0160208091040260200160405190810160405280929190818152602001828054611115906125fe565b80156111625780601f1061113757610100808354040283529160200191611162565b820191906000526020600020905b81548152906001019060200180831161114557829003601f168201915b5050509183525050600382015460208201526004808301546040830152600583015460609092019160ff169081111561119d5761119d6122c9565b60048111156111ae576111ae6122c9565b81526020016006820180546111c2906125fe565b80601f01602080910402602001604051908101604052809291908181526020018280546111ee906125fe565b801561123b5780601f106112105761010080835404028352916020019161123b565b820191906000526020600020905b81548152906001019060200180831161121e57829003601f168201915b50505050508152602001600782018054611254906125fe565b80601f0160208091040260200160405190810160405280929190818152602001828054611280906125fe565b80156112cd5780601f106112a2576101008083540402835291602001916112cd565b820191906000526020600020905b8154815290600101906020018083116112b057829003601f168201915b50505091835250506008919091015460ff16151560209091015292915050565b6113336040518060c0016040528060006001600160a01b031681526020016000815260200160001515815260200160001515815260200160608152602001606081525090565b6001600160a01b03821660009081526002602052604090205461138e5760405162461bcd60e51b8152602060048201526013602482015272139bc81053530818da1958dadcc8199bdd5b99606a1b604482015260640161058d565b6001600160a01b038216600090815260026020526040902080546113b4906001906127ad565b815481106113c4576113c46127c0565b60009182526020918290206040805160c081018252600590930290910180546001600160a01b03168352600181015493830193909352600283015460ff80821615159284019290925261010090041615156060820152600382018054919291608084019190611432906125fe565b80601f016020809104026020016040519081016040528092919081815260200182805461145e906125fe565b80156114ab5780601f10611480576101008083540402835291602001916114ab565b820191906000526020600020905b81548152906001019060200180831161148e57829003601f168201915b505050505081526020016004820180546114c4906125fe565b80601f01602080910402602001604051908101604052809291908181526020018280546114f0906125fe565b801561153d5780601f106115125761010080835404028352916020019161153d565b820191906000526020600020905b81548152906001019060200180831161152057829003601f168201915b5050505050815250509050919050565b600060016001600160a01b03831660009081526001602052604090206005015460ff166004811115611581576115816122c9565b1480156115a957506001600160a01b03821660009081526001602052604090206008015460ff165b80156115cf57506001600160a01b03821660009081526001602052604090206004015442105b92915050565b6115dd611c33565b60046001600160a01b03821660009081526001602052604090206005015460ff16600481111561160f5761160f6122c9565b146116515760405162461bcd60e51b8152602060048201526012602482015271155cd95c881b9bdd081cdd5cdc195b99195960721b604482015260640161058d565b6001600160a01b0316600090815260016020819052604090912060058101805460ff199081168417909155600890910180549091169091179055565b611695611c33565b6001600160a01b03831660009081526001602052604081206005015460ff1660048111156116c5576116c56122c9565b146117035760405162461bcd60e51b815260206004820152600e60248201526d496e76616c69642073746174757360901b604482015260640161058d565b600081511161174a5760405162461bcd60e51b8152602060048201526013602482015272149a5cdac81b195d995b081c995c5d5a5c9959606a1b604482015260640161058d565b6001600160a01b03831660009081526001602081905260409091206005018054849260ff1990911690836004811115611785576117856122c9565b02179055506001600160a01b03831660009081526001602052604090206007016117af8282612687565b506001600160a01b0383166000908152600160208190526040909120426003909101558260048111156117e4576117e46122c9565b03611878576117f861016d620151806127d6565b61180290426127ed565b6001600160a01b0384166000818152600160208190526040822060048101949094556008909301805460ff19168417905560058054938401815590527f036b6384b5eca791c62761152d0c79bb0604c104a5fb6f4eb0703f3154bb3db090910180546001600160a01b031916909117905561189c565b6001600160a01b0383166000908152600160205260409020600801805460ff191690555b6001600160a01b038316600081815260016020526040908190206004015490517f74062fa2c18ff7a45e58eb4cf7fd4c9a279e4de317523c11cef05a6ec1d93e0d9161095c91869190612800565b6002602052816000526040600020818154811061190657600080fd5b600091825260209091206005909102018054600182015460028301546003840180546001600160a01b03909416965091945060ff808216946101009092041692909190611952906125fe565b80601f016020809104026020016040519081016040528092919081815260200182805461197e906125fe565b80156119cb5780601f106119a0576101008083540402835291602001916119cb565b820191906000526020600020905b8154815290600101906020018083116119ae57829003601f168201915b5050505050908060040180546119e0906125fe565b80601f0160208091040260200160405190810160405280929190818152602001828054611a0c906125fe565b8015611a595780601f10611a2e57610100808354040283529160200191611a59565b820191906000526020600020905b815481529060010190602001808311611a3c57829003601f168201915b5050505050905086565b611a6b611c33565b6001600160a01b038116611a9557604051631e4fbdf760e01b81526000600482015260240161058d565b611a9e81611ce0565b50565b611aa9611c33565b80600483604051611aba91906125a0565b908152604051908190036020018120805492151560ff1990931692909217909155611ae69083906125a0565b6040519081900381208215158252907f37d0b92ed81a8363d07d8fe0d01f855108322cebd7e9fd83e3473c7b78243bc89060200161050f565b60606005805480602002602001604051908101604052809291908181526020018280548015611b7757602002820191906000526020600020905b81546001600160a01b03168152600190910190602001808311611b59575b5050505050905090565b611b89611c33565b60016001600160a01b03821660009081526001602052604090206005015460ff166004811115611bbb57611bbb6122c9565b14611bfc5760405162461bcd60e51b8152602060048201526011602482015270155cd95c881b9bdd081d995c9a599a5959607a1b604482015260640161058d565b6001600160a01b0316600090815260016020526040902060058101805460ff19908116600417909155600890910180549091169055565b6000546001600160a01b031633146109795760405163118cdaa760e01b815233600482015260240161058d565b600054600160a01b900460ff16156109795760405163d93c066560e01b815260040160405180910390fd5b611c93611daf565b6000805460ff60a01b191690557f5db9ee0a495bf2e6ff9c91a7834c1ba4fdd244a5e8aa4e537bd38aeae4b073aa335b6040516001600160a01b03909116815260200160405180910390a1565b600080546001600160a01b038381166001600160a01b0319831681178455604051919092169283917f8be0079c531659141344cd1fd0a4f28419497f9722a3daafe3b4186f6b6457e09190a35050565b611d38611c60565b6000805460ff60a01b1916600160a01b1790557f62e78cea01bee320cd4e420270b5ea74000d11b0c9f74754ebdbfc544b05a258611cc33390565b6060611d89826001600160a01b03166014611dd9565b604051602001611d99919061281b565b6040516020818303038152906040529050919050565b600054600160a01b900460ff1661097957604051638dfc202b60e01b815260040160405180910390fd5b60606000611de88360026127d6565b67ffffffffffffffff811115611e0057611e00611f61565b6040519080825280601f01601f191660200182016040528015611e2a576020820181803683370190505b5060408051808201909152601081526f181899199a1a9b1b9c1cb0b131b232b360811b60208201529091506000611e628560026127d6565b90505b8015611ed9578186600f1681518110611e8057611e806127c0565b01602001516001600160f81b03191683611e9b6001846127ad565b81518110611eab57611eab6127c0565b60200101906001600160f81b031916908160001a90535060049590951c94611ed281612845565b9050611e65565b5090949350505050565b60405180610120016040528060006001600160a01b031681526020016060815260200160608152602001600081526020016000815260200160006004811115611f2e57611f2e6122c9565b815260606020820181905260408201819052600091015290565b600060208284031215611f5a57600080fd5b5035919050565b634e487b7160e01b600052604160045260246000fd5b600082601f830112611f8857600080fd5b813567ffffffffffffffff80821115611fa357611fa3611f61565b604051601f8301601f19908116603f01168101908282118183101715611fcb57611fcb611f61565b81604052838152866020858801011115611fe457600080fd5b836020870160208301376000602085830101528094505050505092915050565b6000806040838503121561201757600080fd5b823567ffffffffffffffff81111561202e57600080fd5b61203a85828601611f77565b9250506020830135801515811461205057600080fd5b809150509250929050565b80356001600160a01b038116811461207257600080fd5b919050565b6000806040838503121561208a57600080fd5b6120938361205b565b9150602083013567ffffffffffffffff8111156120af57600080fd5b6120bb85828601611f77565b9150509250929050565b6000806000606084860312156120da57600080fd5b833567ffffffffffffffff808211156120f257600080fd5b6120fe87838801611f77565b9450602086013591508082111561211457600080fd5b61212087838801611f77565b9350604086013591508082111561213657600080fd5b5061214386828701611f77565b9150509250925092565b60006020828403121561215f57600080fd5b813567ffffffffffffffff81111561217657600080fd5b61218284828501611f77565b949350505050565b60006020828403121561219c57600080fd5b6121a58261205b565b9392505050565b60005b838110156121c75781810151838201526020016121af565b50506000910152565b600081518084526121e88160208601602086016121ac565b601f01601f19169290920160200192915050565b60018060a01b038151168252602081015160208301526040810151151560408301526060810151151560608301526000608082015160c0608085015261224560c08501826121d0565b905060a083015184820360a086015261225e82826121d0565b95945050505050565b6000602080830181845280855180835260408601915060408160051b870101925083870160005b828110156122bc57603f198886030184526122aa8583516121fc565b9450928501929085019060010161228e565b5092979650505050505050565b634e487b7160e01b600052602160045260246000fd5b600581106122fd57634e487b7160e01b600052602160045260246000fd5b9052565b6001600160a01b038a168152610120602082018190526000906123268382018c6121d0565b9050828103604084015261233a818b6121d0565b905088606084015287608084015261235560a08401886122df565b82810360c084015261236781876121d0565b905082810360e084015261237b81866121d0565b9150508215156101008301529a9950505050505050505050565b602081526123af6020820183516001600160a01b03169052565b600060208301516101208060408501526123cd6101408501836121d0565b91506040850151601f19808685030160608701526123eb84836121d0565b935060608701516080870152608087015160a087015260a0870151915061241560c08701836122df565b60c08701519150808685030160e087015261243084836121d0565b935060e0870151915061010081878603018188015261244f85846121d0565b94508088015192505050611ed98286018215159052565b6020815260006121a560208301846121fc565b60008060006060848603121561248e57600080fd5b6124978461205b565b92506020840135600581106124ab57600080fd5b9150604084013567ffffffffffffffff8111156124c757600080fd5b61214386828701611f77565b600080604083850312156124e657600080fd5b6124ef8361205b565b946020939093013593505050565b60018060a01b03871681528560208201528415156040820152831515606082015260c06080820152600061253460c08301856121d0565b82810360a084015261254681856121d0565b9998505050505050505050565b6020808252825182820181905260009190848201906040850190845b818110156125945783516001600160a01b03168352928401929184019160010161256f565b50909695505050505050565b600082516125b28184602087016121ac565b9190910192915050565b6020815260006121a560208301846121d0565b634e487b7160e01b600052601160045260246000fd5b6000600182016125f7576125f76125cf565b5060010190565b600181811c9082168061261257607f821691505b60208210810361263257634e487b7160e01b600052602260045260246000fd5b50919050565b601f82111561268257600081815260208120601f850160051c8101602086101561265f5750805b601f850160051c820191505b8181101561267e5782815560010161266b565b5050505b505050565b815167ffffffffffffffff8111156126a1576126a1611f61565b6126b5816126af84546125fe565b84612638565b602080601f8311600181146126ea57600084156126d25750858301515b600019600386901b1c1916600185901b17855561267e565b600085815260208120601f198616915b82811015612719578886015182559484019460019091019084016126fa565b50858210156127375787850151600019600388901b60f8161c191681555b5050505050600190811b01905550565b60608152600061275a60608301866121d0565b828103602084015261276c81866121d0565b9050828103604084015261278081856121d0565b9695505050505050565b8315158152821515602082015260606040820152600061225e60608301846121d0565b818103818111156115cf576115cf6125cf565b634e487b7160e01b600052603260045260246000fd5b80820281158282048414176115cf576115cf6125cf565b808201808211156115cf576115cf6125cf565b6040810161280e82856122df565b8260208301529392505050565b61060f60f31b8152600082516128388160028501602087016121ac565b9190910160020192915050565b600081612854576128546125cf565b50600019019056fea2646970667358221220859fcc7a5c6a8c85d927ef226656865de3e2253301705cb9dfc5efd0b88601d664736f6c63430008140033",
  "linkReferences": {},
  "deployedLinkReferences": {}
}